{
	"contracts/FileUpload.sol": {
		"FileStorage": {
			"abi": [
				{
					"anonymous": false,
					"inputs": [
						{
							"indexed": false,
							"internalType": "uint256",
							"name": "fileId",
							"type": "uint256"
						},
						{
							"indexed": false,
							"internalType": "string",
							"name": "fileHash",
							"type": "string"
						},
						{
							"indexed": false,
							"internalType": "uint256",
							"name": "fileSize",
							"type": "uint256"
						},
						{
							"indexed": false,
							"internalType": "string",
							"name": "fileType",
							"type": "string"
						},
						{
							"indexed": false,
							"internalType": "string",
							"name": "fileName",
							"type": "string"
						},
						{
							"indexed": false,
							"internalType": "uint256",
							"name": "uploadTime",
							"type": "uint256"
						},
						{
							"indexed": false,
							"internalType": "address",
							"name": "uploader",
							"type": "address"
						}
					],
					"name": "FileUploaded",
					"type": "event"
				},
				{
					"inputs": [],
					"name": "fileCount",
					"outputs": [
						{
							"internalType": "uint256",
							"name": "",
							"type": "uint256"
						}
					],
					"stateMutability": "view",
					"type": "function"
				},
				{
					"inputs": [
						{
							"internalType": "address",
							"name": "",
							"type": "address"
						},
						{
							"internalType": "uint256",
							"name": "",
							"type": "uint256"
						}
					],
					"name": "files",
					"outputs": [
						{
							"internalType": "uint256",
							"name": "fileId",
							"type": "uint256"
						},
						{
							"internalType": "string",
							"name": "fileHash",
							"type": "string"
						},
						{
							"internalType": "uint256",
							"name": "fileSize",
							"type": "uint256"
						},
						{
							"internalType": "string",
							"name": "fileType",
							"type": "string"
						},
						{
							"internalType": "string",
							"name": "fileName",
							"type": "string"
						},
						{
							"internalType": "uint256",
							"name": "uploadTime",
							"type": "uint256"
						},
						{
							"internalType": "address",
							"name": "uploader",
							"type": "address"
						}
					],
					"stateMutability": "view",
					"type": "function"
				},
				{
					"inputs": [
						{
							"internalType": "string",
							"name": "_fileHash",
							"type": "string"
						},
						{
							"internalType": "uint256",
							"name": "_fileSize",
							"type": "uint256"
						},
						{
							"internalType": "string",
							"name": "_fileType",
							"type": "string"
						},
						{
							"internalType": "string",
							"name": "_fileName",
							"type": "string"
						}
					],
					"name": "uploadFile",
					"outputs": [],
					"stateMutability": "nonpayable",
					"type": "function"
				}
			],
			"devdoc": {
				"kind": "dev",
				"methods": {},
				"version": 1
			},
			"evm": {
				"assembly": "    /* \"contracts/FileUpload.sol\":58:1130  contract FileStorage {... */\n  mstore(0x40, 0x80)\n    /* \"contracts/FileUpload.sol\":437:438  0 */\n  0x00\n    /* \"contracts/FileUpload.sol\":410:438  uint256 public fileCount = 0 */\n  dup1\n  sstore\n    /* \"contracts/FileUpload.sol\":58:1130  contract FileStorage {... */\n  callvalue\n  dup1\n  iszero\n  tag_1\n  jumpi\n  0x00\n  dup1\n  revert\ntag_1:\n  pop\n  dataSize(sub_0)\n  dup1\n  dataOffset(sub_0)\n  0x00\n  codecopy\n  0x00\n  return\nstop\n\nsub_0: assembly {\n        /* \"contracts/FileUpload.sol\":58:1130  contract FileStorage {... */\n      mstore(0x40, 0x80)\n      callvalue\n      dup1\n      iszero\n      tag_1\n      jumpi\n      0x00\n      dup1\n      revert\n    tag_1:\n      pop\n      jumpi(tag_2, lt(calldatasize, 0x04))\n      shr(0xe0, calldataload(0x00))\n      dup1\n      0x20f21708\n      eq\n      tag_3\n      jumpi\n      dup1\n      0x2ba6978e\n      eq\n      tag_4\n      jumpi\n      dup1\n      0x43953519\n      eq\n      tag_5\n      jumpi\n    tag_2:\n      0x00\n      dup1\n      revert\n        /* \"contracts/FileUpload.sol\":508:1127  function uploadFile(... */\n    tag_3:\n      tag_6\n      0x04\n      dup1\n      calldatasize\n      sub\n      dup2\n      add\n      swap1\n      tag_7\n      swap2\n      swap1\n      tag_8\n      jump\t// in\n    tag_7:\n      tag_9\n      jump\t// in\n    tag_6:\n      stop\n        /* \"contracts/FileUpload.sol\":441:480  mapping(address => File[]) public files */\n    tag_4:\n      tag_10\n      0x04\n      dup1\n      calldatasize\n      sub\n      dup2\n      add\n      swap1\n      tag_11\n      swap2\n      swap1\n      tag_12\n      jump\t// in\n    tag_11:\n      tag_13\n      jump\t// in\n    tag_10:\n      mload(0x40)\n      tag_14\n      swap8\n      swap7\n      swap6\n      swap5\n      swap4\n      swap3\n      swap2\n      swap1\n      tag_15\n      jump\t// in\n    tag_14:\n      mload(0x40)\n      dup1\n      swap2\n      sub\n      swap1\n      return\n        /* \"contracts/FileUpload.sol\":410:438  uint256 public fileCount = 0 */\n    tag_5:\n      tag_16\n      tag_17\n      jump\t// in\n    tag_16:\n      mload(0x40)\n      tag_18\n      swap2\n      swap1\n      tag_19\n      jump\t// in\n    tag_18:\n      mload(0x40)\n      dup1\n      swap2\n      sub\n      swap1\n      return\n        /* \"contracts/FileUpload.sol\":508:1127  function uploadFile(... */\n    tag_9:\n        /* \"contracts/FileUpload.sol\":708:709  0 */\n      0x00\n        /* \"contracts/FileUpload.sol\":688:697  _fileHash */\n      dup5\n        /* \"contracts/FileUpload.sol\":682:705  bytes(_fileHash).length */\n      mload\n        /* \"contracts/FileUpload.sol\":682:709  bytes(_fileHash).length > 0 */\n      gt\n        /* \"contracts/FileUpload.sol\":674:710  require(bytes(_fileHash).length > 0) */\n      tag_21\n      jumpi\n      0x00\n      dup1\n      revert\n    tag_21:\n        /* \"contracts/FileUpload.sol\":747:748  0 */\n      0x00\n        /* \"contracts/FileUpload.sol\":727:736  _fileType */\n      dup3\n        /* \"contracts/FileUpload.sol\":721:744  bytes(_fileType).length */\n      mload\n        /* \"contracts/FileUpload.sol\":721:748  bytes(_fileType).length > 0 */\n      gt\n        /* \"contracts/FileUpload.sol\":713:749  require(bytes(_fileType).length > 0) */\n      tag_22\n      jumpi\n      0x00\n      dup1\n      revert\n    tag_22:\n        /* \"contracts/FileUpload.sol\":786:787  0 */\n      0x00\n        /* \"contracts/FileUpload.sol\":766:775  _fileName */\n      dup2\n        /* \"contracts/FileUpload.sol\":760:783  bytes(_fileName).length */\n      mload\n        /* \"contracts/FileUpload.sol\":760:787  bytes(_fileName).length > 0 */\n      gt\n        /* \"contracts/FileUpload.sol\":752:788  require(bytes(_fileName).length > 0) */\n      tag_23\n      jumpi\n      0x00\n      dup1\n      revert\n    tag_23:\n        /* \"contracts/FileUpload.sol\":821:822  0 */\n      0x00\n        /* \"contracts/FileUpload.sol\":799:823  msg.sender != address(0) */\n      0xffffffffffffffffffffffffffffffffffffffff\n      and\n        /* \"contracts/FileUpload.sol\":799:809  msg.sender */\n      caller\n        /* \"contracts/FileUpload.sol\":799:823  msg.sender != address(0) */\n      0xffffffffffffffffffffffffffffffffffffffff\n      and\n      sub\n        /* \"contracts/FileUpload.sol\":791:824  require(msg.sender != address(0)) */\n      tag_24\n      jumpi\n      0x00\n      dup1\n      revert\n    tag_24:\n        /* \"contracts/FileUpload.sol\":847:848  0 */\n      0x00\n        /* \"contracts/FileUpload.sol\":835:844  _fileSize */\n      dup4\n        /* \"contracts/FileUpload.sol\":835:848  _fileSize > 0 */\n      gt\n        /* \"contracts/FileUpload.sol\":827:849  require(_fileSize > 0) */\n      tag_25\n      jumpi\n      0x00\n      dup1\n      revert\n    tag_25:\n        /* \"contracts/FileUpload.sol\":852:861  fileCount */\n      0x00\n      dup1\n        /* \"contracts/FileUpload.sol\":852:863  fileCount++ */\n      dup2\n      sload\n      dup1\n      swap3\n      swap2\n      swap1\n      tag_26\n      swap1\n      tag_27\n      jump\t// in\n    tag_26:\n      swap2\n      swap1\n      pop\n      sstore\n      pop\n        /* \"contracts/FileUpload.sol\":866:871  files */\n      0x01\n        /* \"contracts/FileUpload.sol\":866:883  files[msg.sender] */\n      0x00\n        /* \"contracts/FileUpload.sol\":872:882  msg.sender */\n      caller\n        /* \"contracts/FileUpload.sol\":866:883  files[msg.sender] */\n      0xffffffffffffffffffffffffffffffffffffffff\n      and\n      0xffffffffffffffffffffffffffffffffffffffff\n      and\n      dup2\n      mstore\n      0x20\n      add\n      swap1\n      dup2\n      mstore\n      0x20\n      add\n      0x00\n      keccak256\n        /* \"contracts/FileUpload.sol\":889:987  File(... */\n      mload(0x40)\n      dup1\n      0xe0\n      add\n      0x40\n      mstore\n      dup1\n        /* \"contracts/FileUpload.sol\":896:905  fileCount */\n      sload(0x00)\n        /* \"contracts/FileUpload.sol\":889:987  File(... */\n      dup2\n      mstore\n      0x20\n      add\n        /* \"contracts/FileUpload.sol\":908:917  _fileHash */\n      dup7\n        /* \"contracts/FileUpload.sol\":889:987  File(... */\n      dup2\n      mstore\n      0x20\n      add\n        /* \"contracts/FileUpload.sol\":920:929  _fileSize */\n      dup6\n        /* \"contracts/FileUpload.sol\":889:987  File(... */\n      dup2\n      mstore\n      0x20\n      add\n        /* \"contracts/FileUpload.sol\":932:941  _fileType */\n      dup5\n        /* \"contracts/FileUpload.sol\":889:987  File(... */\n      dup2\n      mstore\n      0x20\n      add\n        /* \"contracts/FileUpload.sol\":944:953  _fileName */\n      dup4\n        /* \"contracts/FileUpload.sol\":889:987  File(... */\n      dup2\n      mstore\n      0x20\n      add\n        /* \"contracts/FileUpload.sol\":956:971  block.timestamp */\n      timestamp\n        /* \"contracts/FileUpload.sol\":889:987  File(... */\n      dup2\n      mstore\n      0x20\n      add\n        /* \"contracts/FileUpload.sol\":974:984  msg.sender */\n      caller\n        /* \"contracts/FileUpload.sol\":889:987  File(... */\n      0xffffffffffffffffffffffffffffffffffffffff\n      and\n      dup2\n      mstore\n      pop\n        /* \"contracts/FileUpload.sol\":866:988  files[msg.sender].push(File(... */\n      swap1\n      dup1\n      0x01\n      dup2\n      sload\n      add\n      dup1\n      dup3\n      sstore\n      dup1\n      swap2\n      pop\n      pop\n      0x01\n      swap1\n      sub\n      swap1\n      0x00\n      mstore\n      keccak256(0x00, 0x20)\n      swap1\n      0x07\n      mul\n      add\n      0x00\n      swap1\n      swap2\n      swap1\n      swap2\n      swap1\n      swap2\n      pop\n      0x00\n      dup3\n      add\n      mload\n      dup2\n      0x00\n      add\n      sstore\n      0x20\n      dup3\n      add\n      mload\n      dup2\n      0x01\n      add\n      swap1\n      dup2\n      tag_29\n      swap2\n      swap1\n      tag_30\n      jump\t// in\n    tag_29:\n      pop\n      0x40\n      dup3\n      add\n      mload\n      dup2\n      0x02\n      add\n      sstore\n      0x60\n      dup3\n      add\n      mload\n      dup2\n      0x03\n      add\n      swap1\n      dup2\n      tag_31\n      swap2\n      swap1\n      tag_30\n      jump\t// in\n    tag_31:\n      pop\n      0x80\n      dup3\n      add\n      mload\n      dup2\n      0x04\n      add\n      swap1\n      dup2\n      tag_32\n      swap2\n      swap1\n      tag_30\n      jump\t// in\n    tag_32:\n      pop\n      0xa0\n      dup3\n      add\n      mload\n      dup2\n      0x05\n      add\n      sstore\n      0xc0\n      dup3\n      add\n      mload\n      dup2\n      0x06\n      add\n      exp(0x0100, 0x00)\n      dup2\n      sload\n      dup2\n      0xffffffffffffffffffffffffffffffffffffffff\n      mul\n      not\n      and\n      swap1\n      dup4\n      0xffffffffffffffffffffffffffffffffffffffff\n      and\n      mul\n      or\n      swap1\n      sstore\n      pop\n      pop\n      pop\n        /* \"contracts/FileUpload.sol\":1017:1123  FileUploaded(... */\n      0x8afab45e252455189e0428faed31ed4afc4c187924fd4f30fcf4fef26b543536\n        /* \"contracts/FileUpload.sol\":1032:1041  fileCount */\n      sload(0x00)\n        /* \"contracts/FileUpload.sol\":1044:1053  _fileHash */\n      dup6\n        /* \"contracts/FileUpload.sol\":1056:1065  _fileSize */\n      dup6\n        /* \"contracts/FileUpload.sol\":1068:1077  _fileType */\n      dup6\n        /* \"contracts/FileUpload.sol\":1080:1089  _fileName */\n      dup6\n        /* \"contracts/FileUpload.sol\":1092:1107  block.timestamp */\n      timestamp\n        /* \"contracts/FileUpload.sol\":1110:1120  msg.sender */\n      caller\n        /* \"contracts/FileUpload.sol\":1017:1123  FileUploaded(... */\n      mload(0x40)\n      tag_33\n      swap8\n      swap7\n      swap6\n      swap5\n      swap4\n      swap3\n      swap2\n      swap1\n      tag_15\n      jump\t// in\n    tag_33:\n      mload(0x40)\n      dup1\n      swap2\n      sub\n      swap1\n      log1\n        /* \"contracts/FileUpload.sol\":508:1127  function uploadFile(... */\n      pop\n      pop\n      pop\n      pop\n      jump\t// out\n        /* \"contracts/FileUpload.sol\":441:480  mapping(address => File[]) public files */\n    tag_13:\n      mstore(0x20, 0x01)\n      dup2\n      0x00\n      mstore\n      keccak256(0x00, 0x40)\n      dup2\n      dup2\n      sload\n      dup2\n      lt\n      tag_34\n      jumpi\n      0x00\n      dup1\n      revert\n    tag_34:\n      swap1\n      0x00\n      mstore\n      keccak256(0x00, 0x20)\n      swap1\n      0x07\n      mul\n      add\n      0x00\n      swap2\n      pop\n      swap2\n      pop\n      pop\n      dup1\n      0x00\n      add\n      sload\n      swap1\n      dup1\n      0x01\n      add\n      dup1\n      sload\n      tag_36\n      swap1\n      tag_37\n      jump\t// in\n    tag_36:\n      dup1\n      0x1f\n      add\n      0x20\n      dup1\n      swap2\n      div\n      mul\n      0x20\n      add\n      mload(0x40)\n      swap1\n      dup2\n      add\n      0x40\n      mstore\n      dup1\n      swap3\n      swap2\n      swap1\n      dup2\n      dup2\n      mstore\n      0x20\n      add\n      dup3\n      dup1\n      sload\n      tag_38\n      swap1\n      tag_37\n      jump\t// in\n    tag_38:\n      dup1\n      iszero\n      tag_39\n      jumpi\n      dup1\n      0x1f\n      lt\n      tag_40\n      jumpi\n      0x0100\n      dup1\n      dup4\n      sload\n      div\n      mul\n      dup4\n      mstore\n      swap2\n      0x20\n      add\n      swap2\n      jump(tag_39)\n    tag_40:\n      dup3\n      add\n      swap2\n      swap1\n      0x00\n      mstore\n      keccak256(0x00, 0x20)\n      swap1\n    tag_41:\n      dup2\n      sload\n      dup2\n      mstore\n      swap1\n      0x01\n      add\n      swap1\n      0x20\n      add\n      dup1\n      dup4\n      gt\n      tag_41\n      jumpi\n      dup3\n      swap1\n      sub\n      0x1f\n      and\n      dup3\n      add\n      swap2\n    tag_39:\n      pop\n      pop\n      pop\n      pop\n      pop\n      swap1\n      dup1\n      0x02\n      add\n      sload\n      swap1\n      dup1\n      0x03\n      add\n      dup1\n      sload\n      tag_42\n      swap1\n      tag_37\n      jump\t// in\n    tag_42:\n      dup1\n      0x1f\n      add\n      0x20\n      dup1\n      swap2\n      div\n      mul\n      0x20\n      add\n      mload(0x40)\n      swap1\n      dup2\n      add\n      0x40\n      mstore\n      dup1\n      swap3\n      swap2\n      swap1\n      dup2\n      dup2\n      mstore\n      0x20\n      add\n      dup3\n      dup1\n      sload\n      tag_43\n      swap1\n      tag_37\n      jump\t// in\n    tag_43:\n      dup1\n      iszero\n      tag_44\n      jumpi\n      dup1\n      0x1f\n      lt\n      tag_45\n      jumpi\n      0x0100\n      dup1\n      dup4\n      sload\n      div\n      mul\n      dup4\n      mstore\n      swap2\n      0x20\n      add\n      swap2\n      jump(tag_44)\n    tag_45:\n      dup3\n      add\n      swap2\n      swap1\n      0x00\n      mstore\n      keccak256(0x00, 0x20)\n      swap1\n    tag_46:\n      dup2\n      sload\n      dup2\n      mstore\n      swap1\n      0x01\n      add\n      swap1\n      0x20\n      add\n      dup1\n      dup4\n      gt\n      tag_46\n      jumpi\n      dup3\n      swap1\n      sub\n      0x1f\n      and\n      dup3\n      add\n      swap2\n    tag_44:\n      pop\n      pop\n      pop\n      pop\n      pop\n      swap1\n      dup1\n      0x04\n      add\n      dup1\n      sload\n      tag_47\n      swap1\n      tag_37\n      jump\t// in\n    tag_47:\n      dup1\n      0x1f\n      add\n      0x20\n      dup1\n      swap2\n      div\n      mul\n      0x20\n      add\n      mload(0x40)\n      swap1\n      dup2\n      add\n      0x40\n      mstore\n      dup1\n      swap3\n      swap2\n      swap1\n      dup2\n      dup2\n      mstore\n      0x20\n      add\n      dup3\n      dup1\n      sload\n      tag_48\n      swap1\n      tag_37\n      jump\t// in\n    tag_48:\n      dup1\n      iszero\n      tag_49\n      jumpi\n      dup1\n      0x1f\n      lt\n      tag_50\n      jumpi\n      0x0100\n      dup1\n      dup4\n      sload\n      div\n      mul\n      dup4\n      mstore\n      swap2\n      0x20\n      add\n      swap2\n      jump(tag_49)\n    tag_50:\n      dup3\n      add\n      swap2\n      swap1\n      0x00\n      mstore\n      keccak256(0x00, 0x20)\n      swap1\n    tag_51:\n      dup2\n      sload\n      dup2\n      mstore\n      swap1\n      0x01\n      add\n      swap1\n      0x20\n      add\n      dup1\n      dup4\n      gt\n      tag_51\n      jumpi\n      dup3\n      swap1\n      sub\n      0x1f\n      and\n      dup3\n      add\n      swap2\n    tag_49:\n      pop\n      pop\n      pop\n      pop\n      pop\n      swap1\n      dup1\n      0x05\n      add\n      sload\n      swap1\n      dup1\n      0x06\n      add\n      0x00\n      swap1\n      sload\n      swap1\n      0x0100\n      exp\n      swap1\n      div\n      0xffffffffffffffffffffffffffffffffffffffff\n      and\n      swap1\n      pop\n      dup8\n      jump\t// out\n        /* \"contracts/FileUpload.sol\":410:438  uint256 public fileCount = 0 */\n    tag_17:\n      sload(0x00)\n      dup2\n      jump\t// out\n        /* \"#utility.yul\":7:82   */\n    tag_52:\n        /* \"#utility.yul\":40:46   */\n      0x00\n        /* \"#utility.yul\":73:75   */\n      0x40\n        /* \"#utility.yul\":67:76   */\n      mload\n        /* \"#utility.yul\":57:76   */\n      swap1\n      pop\n        /* \"#utility.yul\":7:82   */\n      swap1\n      jump\t// out\n        /* \"#utility.yul\":88:205   */\n    tag_53:\n        /* \"#utility.yul\":197:198   */\n      0x00\n        /* \"#utility.yul\":194:195   */\n      dup1\n        /* \"#utility.yul\":187:199   */\n      revert\n        /* \"#utility.yul\":211:328   */\n    tag_54:\n        /* \"#utility.yul\":320:321   */\n      0x00\n        /* \"#utility.yul\":317:318   */\n      dup1\n        /* \"#utility.yul\":310:322   */\n      revert\n        /* \"#utility.yul\":334:451   */\n    tag_55:\n        /* \"#utility.yul\":443:444   */\n      0x00\n        /* \"#utility.yul\":440:441   */\n      dup1\n        /* \"#utility.yul\":433:445   */\n      revert\n        /* \"#utility.yul\":457:574   */\n    tag_56:\n        /* \"#utility.yul\":566:567   */\n      0x00\n        /* \"#utility.yul\":563:564   */\n      dup1\n        /* \"#utility.yul\":556:568   */\n      revert\n        /* \"#utility.yul\":580:682   */\n    tag_57:\n        /* \"#utility.yul\":621:627   */\n      0x00\n        /* \"#utility.yul\":672:674   */\n      0x1f\n        /* \"#utility.yul\":668:675   */\n      not\n        /* \"#utility.yul\":663:665   */\n      0x1f\n        /* \"#utility.yul\":656:661   */\n      dup4\n        /* \"#utility.yul\":652:666   */\n      add\n        /* \"#utility.yul\":648:676   */\n      and\n        /* \"#utility.yul\":638:676   */\n      swap1\n      pop\n        /* \"#utility.yul\":580:682   */\n      swap2\n      swap1\n      pop\n      jump\t// out\n        /* \"#utility.yul\":688:868   */\n    tag_58:\n        /* \"#utility.yul\":736:813   */\n      0x4e487b7100000000000000000000000000000000000000000000000000000000\n        /* \"#utility.yul\":733:734   */\n      0x00\n        /* \"#utility.yul\":726:814   */\n      mstore\n        /* \"#utility.yul\":833:837   */\n      0x41\n        /* \"#utility.yul\":830:831   */\n      0x04\n        /* \"#utility.yul\":823:838   */\n      mstore\n        /* \"#utility.yul\":857:861   */\n      0x24\n        /* \"#utility.yul\":854:855   */\n      0x00\n        /* \"#utility.yul\":847:862   */\n      revert\n        /* \"#utility.yul\":874:1155   */\n    tag_59:\n        /* \"#utility.yul\":957:984   */\n      tag_104\n        /* \"#utility.yul\":979:983   */\n      dup3\n        /* \"#utility.yul\":957:984   */\n      tag_57\n      jump\t// in\n    tag_104:\n        /* \"#utility.yul\":949:955   */\n      dup2\n        /* \"#utility.yul\":945:985   */\n      add\n        /* \"#utility.yul\":1087:1093   */\n      dup2\n        /* \"#utility.yul\":1075:1085   */\n      dup2\n        /* \"#utility.yul\":1072:1094   */\n      lt\n        /* \"#utility.yul\":1051:1069   */\n      0xffffffffffffffff\n        /* \"#utility.yul\":1039:1049   */\n      dup3\n        /* \"#utility.yul\":1036:1070   */\n      gt\n        /* \"#utility.yul\":1033:1095   */\n      or\n        /* \"#utility.yul\":1030:1118   */\n      iszero\n      tag_105\n      jumpi\n        /* \"#utility.yul\":1098:1116   */\n      tag_106\n      tag_58\n      jump\t// in\n    tag_106:\n        /* \"#utility.yul\":1030:1118   */\n    tag_105:\n        /* \"#utility.yul\":1138:1148   */\n      dup1\n        /* \"#utility.yul\":1134:1136   */\n      0x40\n        /* \"#utility.yul\":1127:1149   */\n      mstore\n        /* \"#utility.yul\":917:1155   */\n      pop\n        /* \"#utility.yul\":874:1155   */\n      pop\n      pop\n      jump\t// out\n        /* \"#utility.yul\":1161:1290   */\n    tag_60:\n        /* \"#utility.yul\":1195:1201   */\n      0x00\n        /* \"#utility.yul\":1222:1242   */\n      tag_108\n      tag_52\n      jump\t// in\n    tag_108:\n        /* \"#utility.yul\":1212:1242   */\n      swap1\n      pop\n        /* \"#utility.yul\":1251:1284   */\n      tag_109\n        /* \"#utility.yul\":1279:1283   */\n      dup3\n        /* \"#utility.yul\":1271:1277   */\n      dup3\n        /* \"#utility.yul\":1251:1284   */\n      tag_59\n      jump\t// in\n    tag_109:\n        /* \"#utility.yul\":1161:1290   */\n      swap2\n      swap1\n      pop\n      jump\t// out\n        /* \"#utility.yul\":1296:1604   */\n    tag_61:\n        /* \"#utility.yul\":1358:1362   */\n      0x00\n        /* \"#utility.yul\":1448:1466   */\n      0xffffffffffffffff\n        /* \"#utility.yul\":1440:1446   */\n      dup3\n        /* \"#utility.yul\":1437:1467   */\n      gt\n        /* \"#utility.yul\":1434:1490   */\n      iszero\n      tag_111\n      jumpi\n        /* \"#utility.yul\":1470:1488   */\n      tag_112\n      tag_58\n      jump\t// in\n    tag_112:\n        /* \"#utility.yul\":1434:1490   */\n    tag_111:\n        /* \"#utility.yul\":1508:1537   */\n      tag_113\n        /* \"#utility.yul\":1530:1536   */\n      dup3\n        /* \"#utility.yul\":1508:1537   */\n      tag_57\n      jump\t// in\n    tag_113:\n        /* \"#utility.yul\":1500:1537   */\n      swap1\n      pop\n        /* \"#utility.yul\":1592:1596   */\n      0x20\n        /* \"#utility.yul\":1586:1590   */\n      dup2\n        /* \"#utility.yul\":1582:1597   */\n      add\n        /* \"#utility.yul\":1574:1597   */\n      swap1\n      pop\n        /* \"#utility.yul\":1296:1604   */\n      swap2\n      swap1\n      pop\n      jump\t// out\n        /* \"#utility.yul\":1610:1758   */\n    tag_62:\n        /* \"#utility.yul\":1708:1714   */\n      dup3\n        /* \"#utility.yul\":1703:1706   */\n      dup2\n        /* \"#utility.yul\":1698:1701   */\n      dup4\n        /* \"#utility.yul\":1685:1715   */\n      calldatacopy\n        /* \"#utility.yul\":1749:1750   */\n      0x00\n        /* \"#utility.yul\":1740:1746   */\n      dup4\n        /* \"#utility.yul\":1735:1738   */\n      dup4\n        /* \"#utility.yul\":1731:1747   */\n      add\n        /* \"#utility.yul\":1724:1751   */\n      mstore\n        /* \"#utility.yul\":1610:1758   */\n      pop\n      pop\n      pop\n      jump\t// out\n        /* \"#utility.yul\":1764:2189   */\n    tag_63:\n        /* \"#utility.yul\":1842:1847   */\n      0x00\n        /* \"#utility.yul\":1867:1933   */\n      tag_116\n        /* \"#utility.yul\":1883:1932   */\n      tag_117\n        /* \"#utility.yul\":1925:1931   */\n      dup5\n        /* \"#utility.yul\":1883:1932   */\n      tag_61\n      jump\t// in\n    tag_117:\n        /* \"#utility.yul\":1867:1933   */\n      tag_60\n      jump\t// in\n    tag_116:\n        /* \"#utility.yul\":1858:1933   */\n      swap1\n      pop\n        /* \"#utility.yul\":1956:1962   */\n      dup3\n        /* \"#utility.yul\":1949:1954   */\n      dup2\n        /* \"#utility.yul\":1942:1963   */\n      mstore\n        /* \"#utility.yul\":1994:1998   */\n      0x20\n        /* \"#utility.yul\":1987:1992   */\n      dup2\n        /* \"#utility.yul\":1983:1999   */\n      add\n        /* \"#utility.yul\":2032:2035   */\n      dup5\n        /* \"#utility.yul\":2023:2029   */\n      dup5\n        /* \"#utility.yul\":2018:2021   */\n      dup5\n        /* \"#utility.yul\":2014:2030   */\n      add\n        /* \"#utility.yul\":2011:2036   */\n      gt\n        /* \"#utility.yul\":2008:2120   */\n      iszero\n      tag_118\n      jumpi\n        /* \"#utility.yul\":2039:2118   */\n      tag_119\n      tag_56\n      jump\t// in\n    tag_119:\n        /* \"#utility.yul\":2008:2120   */\n    tag_118:\n        /* \"#utility.yul\":2129:2183   */\n      tag_120\n        /* \"#utility.yul\":2176:2182   */\n      dup5\n        /* \"#utility.yul\":2171:2174   */\n      dup3\n        /* \"#utility.yul\":2166:2169   */\n      dup6\n        /* \"#utility.yul\":2129:2183   */\n      tag_62\n      jump\t// in\n    tag_120:\n        /* \"#utility.yul\":1848:2189   */\n      pop\n        /* \"#utility.yul\":1764:2189   */\n      swap4\n      swap3\n      pop\n      pop\n      pop\n      jump\t// out\n        /* \"#utility.yul\":2209:2549   */\n    tag_64:\n        /* \"#utility.yul\":2265:2270   */\n      0x00\n        /* \"#utility.yul\":2314:2317   */\n      dup3\n        /* \"#utility.yul\":2307:2311   */\n      0x1f\n        /* \"#utility.yul\":2299:2305   */\n      dup4\n        /* \"#utility.yul\":2295:2312   */\n      add\n        /* \"#utility.yul\":2291:2318   */\n      slt\n        /* \"#utility.yul\":2281:2403   */\n      tag_122\n      jumpi\n        /* \"#utility.yul\":2322:2401   */\n      tag_123\n      tag_55\n      jump\t// in\n    tag_123:\n        /* \"#utility.yul\":2281:2403   */\n    tag_122:\n        /* \"#utility.yul\":2439:2445   */\n      dup2\n        /* \"#utility.yul\":2426:2446   */\n      calldataload\n        /* \"#utility.yul\":2464:2543   */\n      tag_124\n        /* \"#utility.yul\":2539:2542   */\n      dup5\n        /* \"#utility.yul\":2531:2537   */\n      dup3\n        /* \"#utility.yul\":2524:2528   */\n      0x20\n        /* \"#utility.yul\":2516:2522   */\n      dup7\n        /* \"#utility.yul\":2512:2529   */\n      add\n        /* \"#utility.yul\":2464:2543   */\n      tag_63\n      jump\t// in\n    tag_124:\n        /* \"#utility.yul\":2455:2543   */\n      swap2\n      pop\n        /* \"#utility.yul\":2271:2549   */\n      pop\n        /* \"#utility.yul\":2209:2549   */\n      swap3\n      swap2\n      pop\n      pop\n      jump\t// out\n        /* \"#utility.yul\":2555:2632   */\n    tag_65:\n        /* \"#utility.yul\":2592:2599   */\n      0x00\n        /* \"#utility.yul\":2621:2626   */\n      dup2\n        /* \"#utility.yul\":2610:2626   */\n      swap1\n      pop\n        /* \"#utility.yul\":2555:2632   */\n      swap2\n      swap1\n      pop\n      jump\t// out\n        /* \"#utility.yul\":2638:2760   */\n    tag_66:\n        /* \"#utility.yul\":2711:2735   */\n      tag_127\n        /* \"#utility.yul\":2729:2734   */\n      dup2\n        /* \"#utility.yul\":2711:2735   */\n      tag_65\n      jump\t// in\n    tag_127:\n        /* \"#utility.yul\":2704:2709   */\n      dup2\n        /* \"#utility.yul\":2701:2736   */\n      eq\n        /* \"#utility.yul\":2691:2754   */\n      tag_128\n      jumpi\n        /* \"#utility.yul\":2750:2751   */\n      0x00\n        /* \"#utility.yul\":2747:2748   */\n      dup1\n        /* \"#utility.yul\":2740:2752   */\n      revert\n        /* \"#utility.yul\":2691:2754   */\n    tag_128:\n        /* \"#utility.yul\":2638:2760   */\n      pop\n      jump\t// out\n        /* \"#utility.yul\":2766:2905   */\n    tag_67:\n        /* \"#utility.yul\":2812:2817   */\n      0x00\n        /* \"#utility.yul\":2850:2856   */\n      dup2\n        /* \"#utility.yul\":2837:2857   */\n      calldataload\n        /* \"#utility.yul\":2828:2857   */\n      swap1\n      pop\n        /* \"#utility.yul\":2866:2899   */\n      tag_130\n        /* \"#utility.yul\":2893:2898   */\n      dup2\n        /* \"#utility.yul\":2866:2899   */\n      tag_66\n      jump\t// in\n    tag_130:\n        /* \"#utility.yul\":2766:2905   */\n      swap3\n      swap2\n      pop\n      pop\n      jump\t// out\n        /* \"#utility.yul\":2911:4216   */\n    tag_8:\n        /* \"#utility.yul\":3027:3033   */\n      0x00\n        /* \"#utility.yul\":3035:3041   */\n      dup1\n        /* \"#utility.yul\":3043:3049   */\n      0x00\n        /* \"#utility.yul\":3051:3057   */\n      dup1\n        /* \"#utility.yul\":3100:3103   */\n      0x80\n        /* \"#utility.yul\":3088:3097   */\n      dup6\n        /* \"#utility.yul\":3079:3086   */\n      dup8\n        /* \"#utility.yul\":3075:3098   */\n      sub\n        /* \"#utility.yul\":3071:3104   */\n      slt\n        /* \"#utility.yul\":3068:3188   */\n      iszero\n      tag_132\n      jumpi\n        /* \"#utility.yul\":3107:3186   */\n      tag_133\n      tag_53\n      jump\t// in\n    tag_133:\n        /* \"#utility.yul\":3068:3188   */\n    tag_132:\n        /* \"#utility.yul\":3255:3256   */\n      0x00\n        /* \"#utility.yul\":3244:3253   */\n      dup6\n        /* \"#utility.yul\":3240:3257   */\n      add\n        /* \"#utility.yul\":3227:3258   */\n      calldataload\n        /* \"#utility.yul\":3285:3303   */\n      0xffffffffffffffff\n        /* \"#utility.yul\":3277:3283   */\n      dup2\n        /* \"#utility.yul\":3274:3304   */\n      gt\n        /* \"#utility.yul\":3271:3388   */\n      iszero\n      tag_134\n      jumpi\n        /* \"#utility.yul\":3307:3386   */\n      tag_135\n      tag_54\n      jump\t// in\n    tag_135:\n        /* \"#utility.yul\":3271:3388   */\n    tag_134:\n        /* \"#utility.yul\":3412:3475   */\n      tag_136\n        /* \"#utility.yul\":3467:3474   */\n      dup8\n        /* \"#utility.yul\":3458:3464   */\n      dup3\n        /* \"#utility.yul\":3447:3456   */\n      dup9\n        /* \"#utility.yul\":3443:3465   */\n      add\n        /* \"#utility.yul\":3412:3475   */\n      tag_64\n      jump\t// in\n    tag_136:\n        /* \"#utility.yul\":3402:3475   */\n      swap5\n      pop\n        /* \"#utility.yul\":3198:3485   */\n      pop\n        /* \"#utility.yul\":3524:3526   */\n      0x20\n        /* \"#utility.yul\":3550:3603   */\n      tag_137\n        /* \"#utility.yul\":3595:3602   */\n      dup8\n        /* \"#utility.yul\":3586:3592   */\n      dup3\n        /* \"#utility.yul\":3575:3584   */\n      dup9\n        /* \"#utility.yul\":3571:3593   */\n      add\n        /* \"#utility.yul\":3550:3603   */\n      tag_67\n      jump\t// in\n    tag_137:\n        /* \"#utility.yul\":3540:3603   */\n      swap4\n      pop\n        /* \"#utility.yul\":3495:3613   */\n      pop\n        /* \"#utility.yul\":3680:3682   */\n      0x40\n        /* \"#utility.yul\":3669:3678   */\n      dup6\n        /* \"#utility.yul\":3665:3683   */\n      add\n        /* \"#utility.yul\":3652:3684   */\n      calldataload\n        /* \"#utility.yul\":3711:3729   */\n      0xffffffffffffffff\n        /* \"#utility.yul\":3703:3709   */\n      dup2\n        /* \"#utility.yul\":3700:3730   */\n      gt\n        /* \"#utility.yul\":3697:3814   */\n      iszero\n      tag_138\n      jumpi\n        /* \"#utility.yul\":3733:3812   */\n      tag_139\n      tag_54\n      jump\t// in\n    tag_139:\n        /* \"#utility.yul\":3697:3814   */\n    tag_138:\n        /* \"#utility.yul\":3838:3901   */\n      tag_140\n        /* \"#utility.yul\":3893:3900   */\n      dup8\n        /* \"#utility.yul\":3884:3890   */\n      dup3\n        /* \"#utility.yul\":3873:3882   */\n      dup9\n        /* \"#utility.yul\":3869:3891   */\n      add\n        /* \"#utility.yul\":3838:3901   */\n      tag_64\n      jump\t// in\n    tag_140:\n        /* \"#utility.yul\":3828:3901   */\n      swap3\n      pop\n        /* \"#utility.yul\":3623:3911   */\n      pop\n        /* \"#utility.yul\":3978:3980   */\n      0x60\n        /* \"#utility.yul\":3967:3976   */\n      dup6\n        /* \"#utility.yul\":3963:3981   */\n      add\n        /* \"#utility.yul\":3950:3982   */\n      calldataload\n        /* \"#utility.yul\":4009:4027   */\n      0xffffffffffffffff\n        /* \"#utility.yul\":4001:4007   */\n      dup2\n        /* \"#utility.yul\":3998:4028   */\n      gt\n        /* \"#utility.yul\":3995:4112   */\n      iszero\n      tag_141\n      jumpi\n        /* \"#utility.yul\":4031:4110   */\n      tag_142\n      tag_54\n      jump\t// in\n    tag_142:\n        /* \"#utility.yul\":3995:4112   */\n    tag_141:\n        /* \"#utility.yul\":4136:4199   */\n      tag_143\n        /* \"#utility.yul\":4191:4198   */\n      dup8\n        /* \"#utility.yul\":4182:4188   */\n      dup3\n        /* \"#utility.yul\":4171:4180   */\n      dup9\n        /* \"#utility.yul\":4167:4189   */\n      add\n        /* \"#utility.yul\":4136:4199   */\n      tag_64\n      jump\t// in\n    tag_143:\n        /* \"#utility.yul\":4126:4199   */\n      swap2\n      pop\n        /* \"#utility.yul\":3921:4209   */\n      pop\n        /* \"#utility.yul\":2911:4216   */\n      swap3\n      swap6\n      swap2\n      swap5\n      pop\n      swap3\n      pop\n      jump\t// out\n        /* \"#utility.yul\":4222:4348   */\n    tag_68:\n        /* \"#utility.yul\":4259:4266   */\n      0x00\n        /* \"#utility.yul\":4299:4341   */\n      0xffffffffffffffffffffffffffffffffffffffff\n        /* \"#utility.yul\":4292:4297   */\n      dup3\n        /* \"#utility.yul\":4288:4342   */\n      and\n        /* \"#utility.yul\":4277:4342   */\n      swap1\n      pop\n        /* \"#utility.yul\":4222:4348   */\n      swap2\n      swap1\n      pop\n      jump\t// out\n        /* \"#utility.yul\":4354:4450   */\n    tag_69:\n        /* \"#utility.yul\":4391:4398   */\n      0x00\n        /* \"#utility.yul\":4420:4444   */\n      tag_146\n        /* \"#utility.yul\":4438:4443   */\n      dup3\n        /* \"#utility.yul\":4420:4444   */\n      tag_68\n      jump\t// in\n    tag_146:\n        /* \"#utility.yul\":4409:4444   */\n      swap1\n      pop\n        /* \"#utility.yul\":4354:4450   */\n      swap2\n      swap1\n      pop\n      jump\t// out\n        /* \"#utility.yul\":4456:4578   */\n    tag_70:\n        /* \"#utility.yul\":4529:4553   */\n      tag_148\n        /* \"#utility.yul\":4547:4552   */\n      dup2\n        /* \"#utility.yul\":4529:4553   */\n      tag_69\n      jump\t// in\n    tag_148:\n        /* \"#utility.yul\":4522:4527   */\n      dup2\n        /* \"#utility.yul\":4519:4554   */\n      eq\n        /* \"#utility.yul\":4509:4572   */\n      tag_149\n      jumpi\n        /* \"#utility.yul\":4568:4569   */\n      0x00\n        /* \"#utility.yul\":4565:4566   */\n      dup1\n        /* \"#utility.yul\":4558:4570   */\n      revert\n        /* \"#utility.yul\":4509:4572   */\n    tag_149:\n        /* \"#utility.yul\":4456:4578   */\n      pop\n      jump\t// out\n        /* \"#utility.yul\":4584:4723   */\n    tag_71:\n        /* \"#utility.yul\":4630:4635   */\n      0x00\n        /* \"#utility.yul\":4668:4674   */\n      dup2\n        /* \"#utility.yul\":4655:4675   */\n      calldataload\n        /* \"#utility.yul\":4646:4675   */\n      swap1\n      pop\n        /* \"#utility.yul\":4684:4717   */\n      tag_151\n        /* \"#utility.yul\":4711:4716   */\n      dup2\n        /* \"#utility.yul\":4684:4717   */\n      tag_70\n      jump\t// in\n    tag_151:\n        /* \"#utility.yul\":4584:4723   */\n      swap3\n      swap2\n      pop\n      pop\n      jump\t// out\n        /* \"#utility.yul\":4729:5203   */\n    tag_12:\n        /* \"#utility.yul\":4797:4803   */\n      0x00\n        /* \"#utility.yul\":4805:4811   */\n      dup1\n        /* \"#utility.yul\":4854:4856   */\n      0x40\n        /* \"#utility.yul\":4842:4851   */\n      dup4\n        /* \"#utility.yul\":4833:4840   */\n      dup6\n        /* \"#utility.yul\":4829:4852   */\n      sub\n        /* \"#utility.yul\":4825:4857   */\n      slt\n        /* \"#utility.yul\":4822:4941   */\n      iszero\n      tag_153\n      jumpi\n        /* \"#utility.yul\":4860:4939   */\n      tag_154\n      tag_53\n      jump\t// in\n    tag_154:\n        /* \"#utility.yul\":4822:4941   */\n    tag_153:\n        /* \"#utility.yul\":4980:4981   */\n      0x00\n        /* \"#utility.yul\":5005:5058   */\n      tag_155\n        /* \"#utility.yul\":5050:5057   */\n      dup6\n        /* \"#utility.yul\":5041:5047   */\n      dup3\n        /* \"#utility.yul\":5030:5039   */\n      dup7\n        /* \"#utility.yul\":5026:5048   */\n      add\n        /* \"#utility.yul\":5005:5058   */\n      tag_71\n      jump\t// in\n    tag_155:\n        /* \"#utility.yul\":4995:5058   */\n      swap3\n      pop\n        /* \"#utility.yul\":4951:5068   */\n      pop\n        /* \"#utility.yul\":5107:5109   */\n      0x20\n        /* \"#utility.yul\":5133:5186   */\n      tag_156\n        /* \"#utility.yul\":5178:5185   */\n      dup6\n        /* \"#utility.yul\":5169:5175   */\n      dup3\n        /* \"#utility.yul\":5158:5167   */\n      dup7\n        /* \"#utility.yul\":5154:5176   */\n      add\n        /* \"#utility.yul\":5133:5186   */\n      tag_67\n      jump\t// in\n    tag_156:\n        /* \"#utility.yul\":5123:5186   */\n      swap2\n      pop\n        /* \"#utility.yul\":5078:5196   */\n      pop\n        /* \"#utility.yul\":4729:5203   */\n      swap3\n      pop\n      swap3\n      swap1\n      pop\n      jump\t// out\n        /* \"#utility.yul\":5209:5327   */\n    tag_72:\n        /* \"#utility.yul\":5296:5320   */\n      tag_158\n        /* \"#utility.yul\":5314:5319   */\n      dup2\n        /* \"#utility.yul\":5296:5320   */\n      tag_65\n      jump\t// in\n    tag_158:\n        /* \"#utility.yul\":5291:5294   */\n      dup3\n        /* \"#utility.yul\":5284:5321   */\n      mstore\n        /* \"#utility.yul\":5209:5327   */\n      pop\n      pop\n      jump\t// out\n        /* \"#utility.yul\":5333:5432   */\n    tag_73:\n        /* \"#utility.yul\":5385:5391   */\n      0x00\n        /* \"#utility.yul\":5419:5424   */\n      dup2\n        /* \"#utility.yul\":5413:5425   */\n      mload\n        /* \"#utility.yul\":5403:5425   */\n      swap1\n      pop\n        /* \"#utility.yul\":5333:5432   */\n      swap2\n      swap1\n      pop\n      jump\t// out\n        /* \"#utility.yul\":5438:5607   */\n    tag_74:\n        /* \"#utility.yul\":5522:5533   */\n      0x00\n        /* \"#utility.yul\":5556:5562   */\n      dup3\n        /* \"#utility.yul\":5551:5554   */\n      dup3\n        /* \"#utility.yul\":5544:5563   */\n      mstore\n        /* \"#utility.yul\":5596:5600   */\n      0x20\n        /* \"#utility.yul\":5591:5594   */\n      dup3\n        /* \"#utility.yul\":5587:5601   */\n      add\n        /* \"#utility.yul\":5572:5601   */\n      swap1\n      pop\n        /* \"#utility.yul\":5438:5607   */\n      swap3\n      swap2\n      pop\n      pop\n      jump\t// out\n        /* \"#utility.yul\":5613:5752   */\n    tag_75:\n        /* \"#utility.yul\":5702:5708   */\n      dup3\n        /* \"#utility.yul\":5697:5700   */\n      dup2\n        /* \"#utility.yul\":5692:5695   */\n      dup4\n        /* \"#utility.yul\":5686:5709   */\n      mcopy\n        /* \"#utility.yul\":5743:5744   */\n      0x00\n        /* \"#utility.yul\":5734:5740   */\n      dup4\n        /* \"#utility.yul\":5729:5732   */\n      dup4\n        /* \"#utility.yul\":5725:5741   */\n      add\n        /* \"#utility.yul\":5718:5745   */\n      mstore\n        /* \"#utility.yul\":5613:5752   */\n      pop\n      pop\n      pop\n      jump\t// out\n        /* \"#utility.yul\":5758:6135   */\n    tag_76:\n        /* \"#utility.yul\":5846:5849   */\n      0x00\n        /* \"#utility.yul\":5874:5913   */\n      tag_163\n        /* \"#utility.yul\":5907:5912   */\n      dup3\n        /* \"#utility.yul\":5874:5913   */\n      tag_73\n      jump\t// in\n    tag_163:\n        /* \"#utility.yul\":5929:6000   */\n      tag_164\n        /* \"#utility.yul\":5993:5999   */\n      dup2\n        /* \"#utility.yul\":5988:5991   */\n      dup6\n        /* \"#utility.yul\":5929:6000   */\n      tag_74\n      jump\t// in\n    tag_164:\n        /* \"#utility.yul\":5922:6000   */\n      swap4\n      pop\n        /* \"#utility.yul\":6009:6074   */\n      tag_165\n        /* \"#utility.yul\":6067:6073   */\n      dup2\n        /* \"#utility.yul\":6062:6065   */\n      dup6\n        /* \"#utility.yul\":6055:6059   */\n      0x20\n        /* \"#utility.yul\":6048:6053   */\n      dup7\n        /* \"#utility.yul\":6044:6060   */\n      add\n        /* \"#utility.yul\":6009:6074   */\n      tag_75\n      jump\t// in\n    tag_165:\n        /* \"#utility.yul\":6099:6128   */\n      tag_166\n        /* \"#utility.yul\":6121:6127   */\n      dup2\n        /* \"#utility.yul\":6099:6128   */\n      tag_57\n      jump\t// in\n    tag_166:\n        /* \"#utility.yul\":6094:6097   */\n      dup5\n        /* \"#utility.yul\":6090:6129   */\n      add\n        /* \"#utility.yul\":6083:6129   */\n      swap2\n      pop\n        /* \"#utility.yul\":5850:6135   */\n      pop\n        /* \"#utility.yul\":5758:6135   */\n      swap3\n      swap2\n      pop\n      pop\n      jump\t// out\n        /* \"#utility.yul\":6141:6259   */\n    tag_77:\n        /* \"#utility.yul\":6228:6252   */\n      tag_168\n        /* \"#utility.yul\":6246:6251   */\n      dup2\n        /* \"#utility.yul\":6228:6252   */\n      tag_69\n      jump\t// in\n    tag_168:\n        /* \"#utility.yul\":6223:6226   */\n      dup3\n        /* \"#utility.yul\":6216:6253   */\n      mstore\n        /* \"#utility.yul\":6141:6259   */\n      pop\n      pop\n      jump\t// out\n        /* \"#utility.yul\":6265:7424   */\n    tag_15:\n        /* \"#utility.yul\":6586:6590   */\n      0x00\n        /* \"#utility.yul\":6624:6627   */\n      0xe0\n        /* \"#utility.yul\":6613:6622   */\n      dup3\n        /* \"#utility.yul\":6609:6628   */\n      add\n        /* \"#utility.yul\":6601:6628   */\n      swap1\n      pop\n        /* \"#utility.yul\":6638:6709   */\n      tag_170\n        /* \"#utility.yul\":6706:6707   */\n      0x00\n        /* \"#utility.yul\":6695:6704   */\n      dup4\n        /* \"#utility.yul\":6691:6708   */\n      add\n        /* \"#utility.yul\":6682:6688   */\n      dup11\n        /* \"#utility.yul\":6638:6709   */\n      tag_72\n      jump\t// in\n    tag_170:\n        /* \"#utility.yul\":6756:6765   */\n      dup2\n        /* \"#utility.yul\":6750:6754   */\n      dup2\n        /* \"#utility.yul\":6746:6766   */\n      sub\n        /* \"#utility.yul\":6741:6743   */\n      0x20\n        /* \"#utility.yul\":6730:6739   */\n      dup4\n        /* \"#utility.yul\":6726:6744   */\n      add\n        /* \"#utility.yul\":6719:6767   */\n      mstore\n        /* \"#utility.yul\":6784:6862   */\n      tag_171\n        /* \"#utility.yul\":6857:6861   */\n      dup2\n        /* \"#utility.yul\":6848:6854   */\n      dup10\n        /* \"#utility.yul\":6784:6862   */\n      tag_76\n      jump\t// in\n    tag_171:\n        /* \"#utility.yul\":6776:6862   */\n      swap1\n      pop\n        /* \"#utility.yul\":6872:6944   */\n      tag_172\n        /* \"#utility.yul\":6940:6942   */\n      0x40\n        /* \"#utility.yul\":6929:6938   */\n      dup4\n        /* \"#utility.yul\":6925:6943   */\n      add\n        /* \"#utility.yul\":6916:6922   */\n      dup9\n        /* \"#utility.yul\":6872:6944   */\n      tag_72\n      jump\t// in\n    tag_172:\n        /* \"#utility.yul\":6991:7000   */\n      dup2\n        /* \"#utility.yul\":6985:6989   */\n      dup2\n        /* \"#utility.yul\":6981:7001   */\n      sub\n        /* \"#utility.yul\":6976:6978   */\n      0x60\n        /* \"#utility.yul\":6965:6974   */\n      dup4\n        /* \"#utility.yul\":6961:6979   */\n      add\n        /* \"#utility.yul\":6954:7002   */\n      mstore\n        /* \"#utility.yul\":7019:7097   */\n      tag_173\n        /* \"#utility.yul\":7092:7096   */\n      dup2\n        /* \"#utility.yul\":7083:7089   */\n      dup8\n        /* \"#utility.yul\":7019:7097   */\n      tag_76\n      jump\t// in\n    tag_173:\n        /* \"#utility.yul\":7011:7097   */\n      swap1\n      pop\n        /* \"#utility.yul\":7145:7154   */\n      dup2\n        /* \"#utility.yul\":7139:7143   */\n      dup2\n        /* \"#utility.yul\":7135:7155   */\n      sub\n        /* \"#utility.yul\":7129:7132   */\n      0x80\n        /* \"#utility.yul\":7118:7127   */\n      dup4\n        /* \"#utility.yul\":7114:7133   */\n      add\n        /* \"#utility.yul\":7107:7156   */\n      mstore\n        /* \"#utility.yul\":7173:7251   */\n      tag_174\n        /* \"#utility.yul\":7246:7250   */\n      dup2\n        /* \"#utility.yul\":7237:7243   */\n      dup7\n        /* \"#utility.yul\":7173:7251   */\n      tag_76\n      jump\t// in\n    tag_174:\n        /* \"#utility.yul\":7165:7251   */\n      swap1\n      pop\n        /* \"#utility.yul\":7261:7334   */\n      tag_175\n        /* \"#utility.yul\":7329:7332   */\n      0xa0\n        /* \"#utility.yul\":7318:7327   */\n      dup4\n        /* \"#utility.yul\":7314:7333   */\n      add\n        /* \"#utility.yul\":7305:7311   */\n      dup6\n        /* \"#utility.yul\":7261:7334   */\n      tag_72\n      jump\t// in\n    tag_175:\n        /* \"#utility.yul\":7344:7417   */\n      tag_176\n        /* \"#utility.yul\":7412:7415   */\n      0xc0\n        /* \"#utility.yul\":7401:7410   */\n      dup4\n        /* \"#utility.yul\":7397:7416   */\n      add\n        /* \"#utility.yul\":7388:7394   */\n      dup5\n        /* \"#utility.yul\":7344:7417   */\n      tag_77\n      jump\t// in\n    tag_176:\n        /* \"#utility.yul\":6265:7424   */\n      swap9\n      swap8\n      pop\n      pop\n      pop\n      pop\n      pop\n      pop\n      pop\n      pop\n      jump\t// out\n        /* \"#utility.yul\":7430:7652   */\n    tag_19:\n        /* \"#utility.yul\":7523:7527   */\n      0x00\n        /* \"#utility.yul\":7561:7563   */\n      0x20\n        /* \"#utility.yul\":7550:7559   */\n      dup3\n        /* \"#utility.yul\":7546:7564   */\n      add\n        /* \"#utility.yul\":7538:7564   */\n      swap1\n      pop\n        /* \"#utility.yul\":7574:7645   */\n      tag_178\n        /* \"#utility.yul\":7642:7643   */\n      0x00\n        /* \"#utility.yul\":7631:7640   */\n      dup4\n        /* \"#utility.yul\":7627:7644   */\n      add\n        /* \"#utility.yul\":7618:7624   */\n      dup5\n        /* \"#utility.yul\":7574:7645   */\n      tag_72\n      jump\t// in\n    tag_178:\n        /* \"#utility.yul\":7430:7652   */\n      swap3\n      swap2\n      pop\n      pop\n      jump\t// out\n        /* \"#utility.yul\":7658:7838   */\n    tag_78:\n        /* \"#utility.yul\":7706:7783   */\n      0x4e487b7100000000000000000000000000000000000000000000000000000000\n        /* \"#utility.yul\":7703:7704   */\n      0x00\n        /* \"#utility.yul\":7696:7784   */\n      mstore\n        /* \"#utility.yul\":7803:7807   */\n      0x11\n        /* \"#utility.yul\":7800:7801   */\n      0x04\n        /* \"#utility.yul\":7793:7808   */\n      mstore\n        /* \"#utility.yul\":7827:7831   */\n      0x24\n        /* \"#utility.yul\":7824:7825   */\n      0x00\n        /* \"#utility.yul\":7817:7832   */\n      revert\n        /* \"#utility.yul\":7844:8077   */\n    tag_27:\n        /* \"#utility.yul\":7883:7886   */\n      0x00\n        /* \"#utility.yul\":7906:7930   */\n      tag_181\n        /* \"#utility.yul\":7924:7929   */\n      dup3\n        /* \"#utility.yul\":7906:7930   */\n      tag_65\n      jump\t// in\n    tag_181:\n        /* \"#utility.yul\":7897:7930   */\n      swap2\n      pop\n        /* \"#utility.yul\":7952:8018   */\n      0xffffffffffffffffffffffffffffffffffffffffffffffffffffffffffffffff\n        /* \"#utility.yul\":7945:7950   */\n      dup3\n        /* \"#utility.yul\":7942:8019   */\n      sub\n        /* \"#utility.yul\":7939:8042   */\n      tag_182\n      jumpi\n        /* \"#utility.yul\":8022:8040   */\n      tag_183\n      tag_78\n      jump\t// in\n    tag_183:\n        /* \"#utility.yul\":7939:8042   */\n    tag_182:\n        /* \"#utility.yul\":8069:8070   */\n      0x01\n        /* \"#utility.yul\":8062:8067   */\n      dup3\n        /* \"#utility.yul\":8058:8071   */\n      add\n        /* \"#utility.yul\":8051:8071   */\n      swap1\n      pop\n        /* \"#utility.yul\":7844:8077   */\n      swap2\n      swap1\n      pop\n      jump\t// out\n        /* \"#utility.yul\":8083:8263   */\n    tag_79:\n        /* \"#utility.yul\":8131:8208   */\n      0x4e487b7100000000000000000000000000000000000000000000000000000000\n        /* \"#utility.yul\":8128:8129   */\n      0x00\n        /* \"#utility.yul\":8121:8209   */\n      mstore\n        /* \"#utility.yul\":8228:8232   */\n      0x22\n        /* \"#utility.yul\":8225:8226   */\n      0x04\n        /* \"#utility.yul\":8218:8233   */\n      mstore\n        /* \"#utility.yul\":8252:8256   */\n      0x24\n        /* \"#utility.yul\":8249:8250   */\n      0x00\n        /* \"#utility.yul\":8242:8257   */\n      revert\n        /* \"#utility.yul\":8269:8589   */\n    tag_37:\n        /* \"#utility.yul\":8313:8319   */\n      0x00\n        /* \"#utility.yul\":8350:8351   */\n      0x02\n        /* \"#utility.yul\":8344:8348   */\n      dup3\n        /* \"#utility.yul\":8340:8352   */\n      div\n        /* \"#utility.yul\":8330:8352   */\n      swap1\n      pop\n        /* \"#utility.yul\":8397:8398   */\n      0x01\n        /* \"#utility.yul\":8391:8395   */\n      dup3\n        /* \"#utility.yul\":8387:8399   */\n      and\n        /* \"#utility.yul\":8418:8436   */\n      dup1\n        /* \"#utility.yul\":8408:8489   */\n      tag_186\n      jumpi\n        /* \"#utility.yul\":8474:8478   */\n      0x7f\n        /* \"#utility.yul\":8466:8472   */\n      dup3\n        /* \"#utility.yul\":8462:8479   */\n      and\n        /* \"#utility.yul\":8452:8479   */\n      swap2\n      pop\n        /* \"#utility.yul\":8408:8489   */\n    tag_186:\n        /* \"#utility.yul\":8536:8538   */\n      0x20\n        /* \"#utility.yul\":8528:8534   */\n      dup3\n        /* \"#utility.yul\":8525:8539   */\n      lt\n        /* \"#utility.yul\":8505:8523   */\n      dup2\n        /* \"#utility.yul\":8502:8540   */\n      sub\n        /* \"#utility.yul\":8499:8583   */\n      tag_187\n      jumpi\n        /* \"#utility.yul\":8555:8573   */\n      tag_188\n      tag_79\n      jump\t// in\n    tag_188:\n        /* \"#utility.yul\":8499:8583   */\n    tag_187:\n        /* \"#utility.yul\":8320:8589   */\n      pop\n        /* \"#utility.yul\":8269:8589   */\n      swap2\n      swap1\n      pop\n      jump\t// out\n        /* \"#utility.yul\":8595:8736   */\n    tag_80:\n        /* \"#utility.yul\":8644:8648   */\n      0x00\n        /* \"#utility.yul\":8667:8670   */\n      dup2\n        /* \"#utility.yul\":8659:8670   */\n      swap1\n      pop\n        /* \"#utility.yul\":8690:8693   */\n      dup2\n        /* \"#utility.yul\":8687:8688   */\n      0x00\n        /* \"#utility.yul\":8680:8694   */\n      mstore\n        /* \"#utility.yul\":8724:8728   */\n      0x20\n        /* \"#utility.yul\":8721:8722   */\n      0x00\n        /* \"#utility.yul\":8711:8729   */\n      keccak256\n        /* \"#utility.yul\":8703:8729   */\n      swap1\n      pop\n        /* \"#utility.yul\":8595:8736   */\n      swap2\n      swap1\n      pop\n      jump\t// out\n        /* \"#utility.yul\":8742:8835   */\n    tag_81:\n        /* \"#utility.yul\":8779:8785   */\n      0x00\n        /* \"#utility.yul\":8826:8828   */\n      0x20\n        /* \"#utility.yul\":8821:8823   */\n      0x1f\n        /* \"#utility.yul\":8814:8819   */\n      dup4\n        /* \"#utility.yul\":8810:8824   */\n      add\n        /* \"#utility.yul\":8806:8829   */\n      div\n        /* \"#utility.yul\":8796:8829   */\n      swap1\n      pop\n        /* \"#utility.yul\":8742:8835   */\n      swap2\n      swap1\n      pop\n      jump\t// out\n        /* \"#utility.yul\":8841:8948   */\n    tag_82:\n        /* \"#utility.yul\":8885:8893   */\n      0x00\n        /* \"#utility.yul\":8935:8940   */\n      dup3\n        /* \"#utility.yul\":8929:8933   */\n      dup3\n        /* \"#utility.yul\":8925:8941   */\n      shl\n        /* \"#utility.yul\":8904:8941   */\n      swap1\n      pop\n        /* \"#utility.yul\":8841:8948   */\n      swap3\n      swap2\n      pop\n      pop\n      jump\t// out\n        /* \"#utility.yul\":8954:9347   */\n    tag_83:\n        /* \"#utility.yul\":9023:9029   */\n      0x00\n        /* \"#utility.yul\":9073:9074   */\n      0x08\n        /* \"#utility.yul\":9061:9071   */\n      dup4\n        /* \"#utility.yul\":9057:9075   */\n      mul\n        /* \"#utility.yul\":9096:9193   */\n      tag_193\n        /* \"#utility.yul\":9126:9192   */\n      0xffffffffffffffffffffffffffffffffffffffffffffffffffffffffffffffff\n        /* \"#utility.yul\":9115:9124   */\n      dup3\n        /* \"#utility.yul\":9096:9193   */\n      tag_82\n      jump\t// in\n    tag_193:\n        /* \"#utility.yul\":9214:9253   */\n      tag_194\n        /* \"#utility.yul\":9244:9252   */\n      dup7\n        /* \"#utility.yul\":9233:9242   */\n      dup4\n        /* \"#utility.yul\":9214:9253   */\n      tag_82\n      jump\t// in\n    tag_194:\n        /* \"#utility.yul\":9202:9253   */\n      swap6\n      pop\n        /* \"#utility.yul\":9286:9290   */\n      dup1\n        /* \"#utility.yul\":9282:9291   */\n      not\n        /* \"#utility.yul\":9275:9280   */\n      dup5\n        /* \"#utility.yul\":9271:9292   */\n      and\n        /* \"#utility.yul\":9262:9292   */\n      swap4\n      pop\n        /* \"#utility.yul\":9335:9339   */\n      dup1\n        /* \"#utility.yul\":9325:9333   */\n      dup7\n        /* \"#utility.yul\":9321:9340   */\n      and\n        /* \"#utility.yul\":9314:9319   */\n      dup5\n        /* \"#utility.yul\":9311:9341   */\n      or\n        /* \"#utility.yul\":9301:9341   */\n      swap3\n      pop\n        /* \"#utility.yul\":9030:9347   */\n      pop\n      pop\n        /* \"#utility.yul\":8954:9347   */\n      swap4\n      swap3\n      pop\n      pop\n      pop\n      jump\t// out\n        /* \"#utility.yul\":9353:9413   */\n    tag_84:\n        /* \"#utility.yul\":9381:9384   */\n      0x00\n        /* \"#utility.yul\":9402:9407   */\n      dup2\n        /* \"#utility.yul\":9395:9407   */\n      swap1\n      pop\n        /* \"#utility.yul\":9353:9413   */\n      swap2\n      swap1\n      pop\n      jump\t// out\n        /* \"#utility.yul\":9419:9561   */\n    tag_85:\n        /* \"#utility.yul\":9469:9478   */\n      0x00\n        /* \"#utility.yul\":9502:9555   */\n      tag_197\n        /* \"#utility.yul\":9520:9554   */\n      tag_198\n        /* \"#utility.yul\":9529:9553   */\n      tag_199\n        /* \"#utility.yul\":9547:9552   */\n      dup5\n        /* \"#utility.yul\":9529:9553   */\n      tag_65\n      jump\t// in\n    tag_199:\n        /* \"#utility.yul\":9520:9554   */\n      tag_84\n      jump\t// in\n    tag_198:\n        /* \"#utility.yul\":9502:9555   */\n      tag_65\n      jump\t// in\n    tag_197:\n        /* \"#utility.yul\":9489:9555   */\n      swap1\n      pop\n        /* \"#utility.yul\":9419:9561   */\n      swap2\n      swap1\n      pop\n      jump\t// out\n        /* \"#utility.yul\":9567:9642   */\n    tag_86:\n        /* \"#utility.yul\":9610:9613   */\n      0x00\n        /* \"#utility.yul\":9631:9636   */\n      dup2\n        /* \"#utility.yul\":9624:9636   */\n      swap1\n      pop\n        /* \"#utility.yul\":9567:9642   */\n      swap2\n      swap1\n      pop\n      jump\t// out\n        /* \"#utility.yul\":9648:9917   */\n    tag_87:\n        /* \"#utility.yul\":9758:9797   */\n      tag_202\n        /* \"#utility.yul\":9789:9796   */\n      dup4\n        /* \"#utility.yul\":9758:9797   */\n      tag_85\n      jump\t// in\n    tag_202:\n        /* \"#utility.yul\":9819:9910   */\n      tag_203\n        /* \"#utility.yul\":9868:9909   */\n      tag_204\n        /* \"#utility.yul\":9892:9908   */\n      dup3\n        /* \"#utility.yul\":9868:9909   */\n      tag_86\n      jump\t// in\n    tag_204:\n        /* \"#utility.yul\":9860:9866   */\n      dup5\n        /* \"#utility.yul\":9853:9857   */\n      dup5\n        /* \"#utility.yul\":9847:9858   */\n      sload\n        /* \"#utility.yul\":9819:9910   */\n      tag_83\n      jump\t// in\n    tag_203:\n        /* \"#utility.yul\":9813:9817   */\n      dup3\n        /* \"#utility.yul\":9806:9911   */\n      sstore\n        /* \"#utility.yul\":9724:9917   */\n      pop\n        /* \"#utility.yul\":9648:9917   */\n      pop\n      pop\n      pop\n      jump\t// out\n        /* \"#utility.yul\":9923:9996   */\n    tag_88:\n        /* \"#utility.yul\":9968:9971   */\n      0x00\n        /* \"#utility.yul\":9923:9996   */\n      swap1\n      jump\t// out\n        /* \"#utility.yul\":10002:10191   */\n    tag_89:\n        /* \"#utility.yul\":10079:10111   */\n      tag_207\n      tag_88\n      jump\t// in\n    tag_207:\n        /* \"#utility.yul\":10120:10185   */\n      tag_208\n        /* \"#utility.yul\":10178:10184   */\n      dup2\n        /* \"#utility.yul\":10170:10176   */\n      dup5\n        /* \"#utility.yul\":10164:10168   */\n      dup5\n        /* \"#utility.yul\":10120:10185   */\n      tag_87\n      jump\t// in\n    tag_208:\n        /* \"#utility.yul\":10055:10191   */\n      pop\n        /* \"#utility.yul\":10002:10191   */\n      pop\n      pop\n      jump\t// out\n        /* \"#utility.yul\":10197:10383   */\n    tag_90:\n        /* \"#utility.yul\":10257:10377   */\n    tag_210:\n        /* \"#utility.yul\":10274:10277   */\n      dup2\n        /* \"#utility.yul\":10267:10272   */\n      dup2\n        /* \"#utility.yul\":10264:10278   */\n      lt\n        /* \"#utility.yul\":10257:10377   */\n      iszero\n      tag_212\n      jumpi\n        /* \"#utility.yul\":10328:10367   */\n      tag_213\n        /* \"#utility.yul\":10365:10366   */\n      0x00\n        /* \"#utility.yul\":10358:10363   */\n      dup3\n        /* \"#utility.yul\":10328:10367   */\n      tag_89\n      jump\t// in\n    tag_213:\n        /* \"#utility.yul\":10301:10302   */\n      0x01\n        /* \"#utility.yul\":10294:10299   */\n      dup2\n        /* \"#utility.yul\":10290:10303   */\n      add\n        /* \"#utility.yul\":10281:10303   */\n      swap1\n      pop\n        /* \"#utility.yul\":10257:10377   */\n      jump(tag_210)\n    tag_212:\n        /* \"#utility.yul\":10197:10383   */\n      pop\n      pop\n      jump\t// out\n        /* \"#utility.yul\":10389:10932   */\n    tag_91:\n        /* \"#utility.yul\":10490:10492   */\n      0x1f\n        /* \"#utility.yul\":10485:10488   */\n      dup3\n        /* \"#utility.yul\":10482:10493   */\n      gt\n        /* \"#utility.yul\":10479:10925   */\n      iszero\n      tag_215\n      jumpi\n        /* \"#utility.yul\":10524:10562   */\n      tag_216\n        /* \"#utility.yul\":10556:10561   */\n      dup2\n        /* \"#utility.yul\":10524:10562   */\n      tag_80\n      jump\t// in\n    tag_216:\n        /* \"#utility.yul\":10608:10637   */\n      tag_217\n        /* \"#utility.yul\":10626:10636   */\n      dup5\n        /* \"#utility.yul\":10608:10637   */\n      tag_81\n      jump\t// in\n    tag_217:\n        /* \"#utility.yul\":10598:10606   */\n      dup2\n        /* \"#utility.yul\":10594:10638   */\n      add\n        /* \"#utility.yul\":10791:10793   */\n      0x20\n        /* \"#utility.yul\":10779:10789   */\n      dup6\n        /* \"#utility.yul\":10776:10794   */\n      lt\n        /* \"#utility.yul\":10773:10822   */\n      iszero\n      tag_218\n      jumpi\n        /* \"#utility.yul\":10812:10820   */\n      dup2\n        /* \"#utility.yul\":10797:10820   */\n      swap1\n      pop\n        /* \"#utility.yul\":10773:10822   */\n    tag_218:\n        /* \"#utility.yul\":10835:10915   */\n      tag_219\n        /* \"#utility.yul\":10891:10913   */\n      tag_220\n        /* \"#utility.yul\":10909:10912   */\n      dup6\n        /* \"#utility.yul\":10891:10913   */\n      tag_81\n      jump\t// in\n    tag_220:\n        /* \"#utility.yul\":10881:10889   */\n      dup4\n        /* \"#utility.yul\":10877:10914   */\n      add\n        /* \"#utility.yul\":10864:10875   */\n      dup3\n        /* \"#utility.yul\":10835:10915   */\n      tag_90\n      jump\t// in\n    tag_219:\n        /* \"#utility.yul\":10494:10925   */\n      pop\n      pop\n        /* \"#utility.yul\":10479:10925   */\n    tag_215:\n        /* \"#utility.yul\":10389:10932   */\n      pop\n      pop\n      pop\n      jump\t// out\n        /* \"#utility.yul\":10938:11055   */\n    tag_92:\n        /* \"#utility.yul\":10992:11000   */\n      0x00\n        /* \"#utility.yul\":11042:11047   */\n      dup3\n        /* \"#utility.yul\":11036:11040   */\n      dup3\n        /* \"#utility.yul\":11032:11048   */\n      shr\n        /* \"#utility.yul\":11011:11048   */\n      swap1\n      pop\n        /* \"#utility.yul\":10938:11055   */\n      swap3\n      swap2\n      pop\n      pop\n      jump\t// out\n        /* \"#utility.yul\":11061:11230   */\n    tag_93:\n        /* \"#utility.yul\":11105:11111   */\n      0x00\n        /* \"#utility.yul\":11138:11189   */\n      tag_223\n        /* \"#utility.yul\":11186:11187   */\n      0x00\n        /* \"#utility.yul\":11182:11188   */\n      not\n        /* \"#utility.yul\":11174:11179   */\n      dup5\n        /* \"#utility.yul\":11171:11172   */\n      0x08\n        /* \"#utility.yul\":11167:11180   */\n      mul\n        /* \"#utility.yul\":11138:11189   */\n      tag_92\n      jump\t// in\n    tag_223:\n        /* \"#utility.yul\":11134:11190   */\n      not\n        /* \"#utility.yul\":11219:11223   */\n      dup1\n        /* \"#utility.yul\":11213:11217   */\n      dup4\n        /* \"#utility.yul\":11209:11224   */\n      and\n        /* \"#utility.yul\":11199:11224   */\n      swap2\n      pop\n        /* \"#utility.yul\":11112:11230   */\n      pop\n        /* \"#utility.yul\":11061:11230   */\n      swap3\n      swap2\n      pop\n      pop\n      jump\t// out\n        /* \"#utility.yul\":11235:11530   */\n    tag_94:\n        /* \"#utility.yul\":11311:11315   */\n      0x00\n        /* \"#utility.yul\":11457:11486   */\n      tag_225\n        /* \"#utility.yul\":11482:11485   */\n      dup4\n        /* \"#utility.yul\":11476:11480   */\n      dup4\n        /* \"#utility.yul\":11457:11486   */\n      tag_93\n      jump\t// in\n    tag_225:\n        /* \"#utility.yul\":11449:11486   */\n      swap2\n      pop\n        /* \"#utility.yul\":11519:11522   */\n      dup3\n        /* \"#utility.yul\":11516:11517   */\n      0x02\n        /* \"#utility.yul\":11512:11523   */\n      mul\n        /* \"#utility.yul\":11506:11510   */\n      dup3\n        /* \"#utility.yul\":11503:11524   */\n      or\n        /* \"#utility.yul\":11495:11524   */\n      swap1\n      pop\n        /* \"#utility.yul\":11235:11530   */\n      swap3\n      swap2\n      pop\n      pop\n      jump\t// out\n        /* \"#utility.yul\":11535:12930   */\n    tag_30:\n        /* \"#utility.yul\":11652:11689   */\n      tag_227\n        /* \"#utility.yul\":11685:11688   */\n      dup3\n        /* \"#utility.yul\":11652:11689   */\n      tag_73\n      jump\t// in\n    tag_227:\n        /* \"#utility.yul\":11754:11772   */\n      0xffffffffffffffff\n        /* \"#utility.yul\":11746:11752   */\n      dup2\n        /* \"#utility.yul\":11743:11773   */\n      gt\n        /* \"#utility.yul\":11740:11796   */\n      iszero\n      tag_228\n      jumpi\n        /* \"#utility.yul\":11776:11794   */\n      tag_229\n      tag_58\n      jump\t// in\n    tag_229:\n        /* \"#utility.yul\":11740:11796   */\n    tag_228:\n        /* \"#utility.yul\":11820:11858   */\n      tag_230\n        /* \"#utility.yul\":11852:11856   */\n      dup3\n        /* \"#utility.yul\":11846:11857   */\n      sload\n        /* \"#utility.yul\":11820:11858   */\n      tag_37\n      jump\t// in\n    tag_230:\n        /* \"#utility.yul\":11905:11972   */\n      tag_231\n        /* \"#utility.yul\":11965:11971   */\n      dup3\n        /* \"#utility.yul\":11957:11963   */\n      dup3\n        /* \"#utility.yul\":11951:11955   */\n      dup6\n        /* \"#utility.yul\":11905:11972   */\n      tag_91\n      jump\t// in\n    tag_231:\n        /* \"#utility.yul\":11999:12000   */\n      0x00\n        /* \"#utility.yul\":12023:12027   */\n      0x20\n        /* \"#utility.yul\":12010:12027   */\n      swap1\n      pop\n        /* \"#utility.yul\":12055:12057   */\n      0x1f\n        /* \"#utility.yul\":12047:12053   */\n      dup4\n        /* \"#utility.yul\":12044:12058   */\n      gt\n        /* \"#utility.yul\":12072:12073   */\n      0x01\n        /* \"#utility.yul\":12067:12685   */\n      dup2\n      eq\n      tag_233\n      jumpi\n        /* \"#utility.yul\":12729:12730   */\n      0x00\n        /* \"#utility.yul\":12746:12752   */\n      dup5\n        /* \"#utility.yul\":12743:12820   */\n      iszero\n      tag_234\n      jumpi\n        /* \"#utility.yul\":12795:12804   */\n      dup3\n        /* \"#utility.yul\":12790:12793   */\n      dup8\n        /* \"#utility.yul\":12786:12805   */\n      add\n        /* \"#utility.yul\":12780:12806   */\n      mload\n        /* \"#utility.yul\":12771:12806   */\n      swap1\n      pop\n        /* \"#utility.yul\":12743:12820   */\n    tag_234:\n        /* \"#utility.yul\":12846:12913   */\n      tag_235\n        /* \"#utility.yul\":12906:12912   */\n      dup6\n        /* \"#utility.yul\":12899:12904   */\n      dup3\n        /* \"#utility.yul\":12846:12913   */\n      tag_94\n      jump\t// in\n    tag_235:\n        /* \"#utility.yul\":12840:12844   */\n      dup7\n        /* \"#utility.yul\":12833:12914   */\n      sstore\n        /* \"#utility.yul\":12702:12924   */\n      pop\n        /* \"#utility.yul\":12037:12924   */\n      jump(tag_232)\n        /* \"#utility.yul\":12067:12685   */\n    tag_233:\n        /* \"#utility.yul\":12119:12123   */\n      0x1f\n        /* \"#utility.yul\":12115:12124   */\n      not\n        /* \"#utility.yul\":12107:12113   */\n      dup5\n        /* \"#utility.yul\":12103:12125   */\n      and\n        /* \"#utility.yul\":12153:12190   */\n      tag_236\n        /* \"#utility.yul\":12185:12189   */\n      dup7\n        /* \"#utility.yul\":12153:12190   */\n      tag_80\n      jump\t// in\n    tag_236:\n        /* \"#utility.yul\":12212:12213   */\n      0x00\n        /* \"#utility.yul\":12226:12434   */\n    tag_237:\n        /* \"#utility.yul\":12240:12247   */\n      dup3\n        /* \"#utility.yul\":12237:12238   */\n      dup2\n        /* \"#utility.yul\":12234:12248   */\n      lt\n        /* \"#utility.yul\":12226:12434   */\n      iszero\n      tag_239\n      jumpi\n        /* \"#utility.yul\":12319:12328   */\n      dup5\n        /* \"#utility.yul\":12314:12317   */\n      dup10\n        /* \"#utility.yul\":12310:12329   */\n      add\n        /* \"#utility.yul\":12304:12330   */\n      mload\n        /* \"#utility.yul\":12296:12302   */\n      dup3\n        /* \"#utility.yul\":12289:12331   */\n      sstore\n        /* \"#utility.yul\":12370:12371   */\n      0x01\n        /* \"#utility.yul\":12362:12368   */\n      dup3\n        /* \"#utility.yul\":12358:12372   */\n      add\n        /* \"#utility.yul\":12348:12372   */\n      swap2\n      pop\n        /* \"#utility.yul\":12417:12419   */\n      0x20\n        /* \"#utility.yul\":12406:12415   */\n      dup6\n        /* \"#utility.yul\":12402:12420   */\n      add\n        /* \"#utility.yul\":12389:12420   */\n      swap5\n      pop\n        /* \"#utility.yul\":12263:12267   */\n      0x20\n        /* \"#utility.yul\":12260:12261   */\n      dup2\n        /* \"#utility.yul\":12256:12268   */\n      add\n        /* \"#utility.yul\":12251:12268   */\n      swap1\n      pop\n        /* \"#utility.yul\":12226:12434   */\n      jump(tag_237)\n    tag_239:\n        /* \"#utility.yul\":12462:12468   */\n      dup7\n        /* \"#utility.yul\":12453:12460   */\n      dup4\n        /* \"#utility.yul\":12450:12469   */\n      lt\n        /* \"#utility.yul\":12447:12626   */\n      iszero\n      tag_240\n      jumpi\n        /* \"#utility.yul\":12520:12529   */\n      dup5\n        /* \"#utility.yul\":12515:12518   */\n      dup10\n        /* \"#utility.yul\":12511:12530   */\n      add\n        /* \"#utility.yul\":12505:12531   */\n      mload\n        /* \"#utility.yul\":12563:12611   */\n      tag_241\n        /* \"#utility.yul\":12605:12609   */\n      0x1f\n        /* \"#utility.yul\":12597:12603   */\n      dup10\n        /* \"#utility.yul\":12593:12610   */\n      and\n        /* \"#utility.yul\":12582:12591   */\n      dup3\n        /* \"#utility.yul\":12563:12611   */\n      tag_93\n      jump\t// in\n    tag_241:\n        /* \"#utility.yul\":12555:12561   */\n      dup4\n        /* \"#utility.yul\":12548:12612   */\n      sstore\n        /* \"#utility.yul\":12470:12626   */\n      pop\n        /* \"#utility.yul\":12447:12626   */\n    tag_240:\n        /* \"#utility.yul\":12672:12673   */\n      0x01\n        /* \"#utility.yul\":12668:12669   */\n      0x02\n        /* \"#utility.yul\":12660:12666   */\n      dup9\n        /* \"#utility.yul\":12656:12670   */\n      mul\n        /* \"#utility.yul\":12652:12674   */\n      add\n        /* \"#utility.yul\":12646:12650   */\n      dup9\n        /* \"#utility.yul\":12639:12675   */\n      sstore\n        /* \"#utility.yul\":12074:12685   */\n      pop\n      pop\n      pop\n        /* \"#utility.yul\":12037:12924   */\n    tag_232:\n      pop\n        /* \"#utility.yul\":11627:12930   */\n      pop\n      pop\n      pop\n        /* \"#utility.yul\":11535:12930   */\n      pop\n      pop\n      jump\t// out\n\n    auxdata: 0xa264697066735822122009e1c0eb5b302faf035f20da8caaa3b23187fafa68cab7f8828bb9fb390a750364736f6c634300081a0033\n}\n",
				"bytecode": {
					"linkReferences": {},
					"object": "60806040525f80553480156011575f80fd5b50610c368061001f5f395ff3fe608060405234801561000f575f80fd5b506004361061003f575f3560e01c806320f21708146100435780632ba6978e1461005f5780634395351914610095575b5f80fd5b61005d6004803603810190610058919061065a565b6100b3565b005b6100796004803603810190610074919061076c565b6102cc565b60405161008c9796959493929190610828565b60405180910390f35b61009d6104d5565b6040516100aa91906108aa565b60405180910390f35b5f8451116100bf575f80fd5b5f8251116100cb575f80fd5b5f8151116100d7575f80fd5b5f73ffffffffffffffffffffffffffffffffffffffff163373ffffffffffffffffffffffffffffffffffffffff160361010e575f80fd5b5f8311610119575f80fd5b5f8081548092919061012a906108f0565b919050555060015f3373ffffffffffffffffffffffffffffffffffffffff1673ffffffffffffffffffffffffffffffffffffffff1681526020019081526020015f206040518060e001604052805f5481526020018681526020018581526020018481526020018381526020014281526020013373ffffffffffffffffffffffffffffffffffffffff16815250908060018154018082558091505060019003905f5260205f2090600702015f909190919091505f820151815f015560208201518160010190816101f99190610b31565b506040820151816002015560608201518160030190816102199190610b31565b50608082015181600401908161022f9190610b31565b5060a0820151816005015560c0820151816006015f6101000a81548173ffffffffffffffffffffffffffffffffffffffff021916908373ffffffffffffffffffffffffffffffffffffffff16021790555050507f8afab45e252455189e0428faed31ed4afc4c187924fd4f30fcf4fef26b5435365f548585858542336040516102be9796959493929190610828565b60405180910390a150505050565b6001602052815f5260405f2081815481106102e5575f80fd5b905f5260205f2090600702015f9150915050805f01549080600101805461030b90610964565b80601f016020809104026020016040519081016040528092919081815260200182805461033790610964565b80156103825780601f1061035957610100808354040283529160200191610382565b820191905f5260205f20905b81548152906001019060200180831161036557829003601f168201915b50505050509080600201549080600301805461039d90610964565b80601f01602080910402602001604051908101604052809291908181526020018280546103c990610964565b80156104145780601f106103eb57610100808354040283529160200191610414565b820191905f5260205f20905b8154815290600101906020018083116103f757829003601f168201915b50505050509080600401805461042990610964565b80601f016020809104026020016040519081016040528092919081815260200182805461045590610964565b80156104a05780601f10610477576101008083540402835291602001916104a0565b820191905f5260205f20905b81548152906001019060200180831161048357829003601f168201915b505050505090806005015490806006015f9054906101000a900473ffffffffffffffffffffffffffffffffffffffff16905087565b5f5481565b5f604051905090565b5f80fd5b5f80fd5b5f80fd5b5f80fd5b5f601f19601f8301169050919050565b7f4e487b71000000000000000000000000000000000000000000000000000000005f52604160045260245ffd5b610539826104f3565b810181811067ffffffffffffffff8211171561055857610557610503565b5b80604052505050565b5f61056a6104da565b90506105768282610530565b919050565b5f67ffffffffffffffff82111561059557610594610503565b5b61059e826104f3565b9050602081019050919050565b828183375f83830152505050565b5f6105cb6105c68461057b565b610561565b9050828152602081018484840111156105e7576105e66104ef565b5b6105f28482856105ab565b509392505050565b5f82601f83011261060e5761060d6104eb565b5b813561061e8482602086016105b9565b91505092915050565b5f819050919050565b61063981610627565b8114610643575f80fd5b50565b5f8135905061065481610630565b92915050565b5f805f8060808587031215610672576106716104e3565b5b5f85013567ffffffffffffffff81111561068f5761068e6104e7565b5b61069b878288016105fa565b94505060206106ac87828801610646565b935050604085013567ffffffffffffffff8111156106cd576106cc6104e7565b5b6106d9878288016105fa565b925050606085013567ffffffffffffffff8111156106fa576106f96104e7565b5b610706878288016105fa565b91505092959194509250565b5f73ffffffffffffffffffffffffffffffffffffffff82169050919050565b5f61073b82610712565b9050919050565b61074b81610731565b8114610755575f80fd5b50565b5f8135905061076681610742565b92915050565b5f8060408385031215610782576107816104e3565b5b5f61078f85828601610758565b92505060206107a085828601610646565b9150509250929050565b6107b381610627565b82525050565b5f81519050919050565b5f82825260208201905092915050565b8281835e5f83830152505050565b5f6107eb826107b9565b6107f581856107c3565b93506108058185602086016107d3565b61080e816104f3565b840191505092915050565b61082281610731565b82525050565b5f60e08201905061083b5f83018a6107aa565b818103602083015261084d81896107e1565b905061085c60408301886107aa565b818103606083015261086e81876107e1565b9050818103608083015261088281866107e1565b905061089160a08301856107aa565b61089e60c0830184610819565b98975050505050505050565b5f6020820190506108bd5f8301846107aa565b92915050565b7f4e487b71000000000000000000000000000000000000000000000000000000005f52601160045260245ffd5b5f6108fa82610627565b91507fffffffffffffffffffffffffffffffffffffffffffffffffffffffffffffffff820361092c5761092b6108c3565b5b600182019050919050565b7f4e487b71000000000000000000000000000000000000000000000000000000005f52602260045260245ffd5b5f600282049050600182168061097b57607f821691505b60208210810361098e5761098d610937565b5b50919050565b5f819050815f5260205f209050919050565b5f6020601f8301049050919050565b5f82821b905092915050565b5f600883026109f07fffffffffffffffffffffffffffffffffffffffffffffffffffffffffffffffff826109b5565b6109fa86836109b5565b95508019841693508086168417925050509392505050565b5f819050919050565b5f610a35610a30610a2b84610627565b610a12565b610627565b9050919050565b5f819050919050565b610a4e83610a1b565b610a62610a5a82610a3c565b8484546109c1565b825550505050565b5f90565b610a76610a6a565b610a81818484610a45565b505050565b5b81811015610aa457610a995f82610a6e565b600181019050610a87565b5050565b601f821115610ae957610aba81610994565b610ac3846109a6565b81016020851015610ad2578190505b610ae6610ade856109a6565b830182610a86565b50505b505050565b5f82821c905092915050565b5f610b095f1984600802610aee565b1980831691505092915050565b5f610b218383610afa565b9150826002028217905092915050565b610b3a826107b9565b67ffffffffffffffff811115610b5357610b52610503565b5b610b5d8254610964565b610b68828285610aa8565b5f60209050601f831160018114610b99575f8415610b87578287015190505b610b918582610b16565b865550610bf8565b601f198416610ba786610994565b5f5b82811015610bce57848901518255600182019150602085019450602081019050610ba9565b86831015610beb5784890151610be7601f891682610afa565b8355505b6001600288020188555050505b50505050505056fea264697066735822122009e1c0eb5b302faf035f20da8caaa3b23187fafa68cab7f8828bb9fb390a750364736f6c634300081a0033",
					"opcodes": "PUSH1 0x80 PUSH1 0x40 MSTORE PUSH0 DUP1 SSTORE CALLVALUE DUP1 ISZERO PUSH1 0x11 JUMPI PUSH0 DUP1 REVERT JUMPDEST POP PUSH2 0xC36 DUP1 PUSH2 0x1F PUSH0 CODECOPY PUSH0 RETURN INVALID PUSH1 0x80 PUSH1 0x40 MSTORE CALLVALUE DUP1 ISZERO PUSH2 0xF JUMPI PUSH0 DUP1 REVERT JUMPDEST POP PUSH1 0x4 CALLDATASIZE LT PUSH2 0x3F JUMPI PUSH0 CALLDATALOAD PUSH1 0xE0 SHR DUP1 PUSH4 0x20F21708 EQ PUSH2 0x43 JUMPI DUP1 PUSH4 0x2BA6978E EQ PUSH2 0x5F JUMPI DUP1 PUSH4 0x43953519 EQ PUSH2 0x95 JUMPI JUMPDEST PUSH0 DUP1 REVERT JUMPDEST PUSH2 0x5D PUSH1 0x4 DUP1 CALLDATASIZE SUB DUP2 ADD SWAP1 PUSH2 0x58 SWAP2 SWAP1 PUSH2 0x65A JUMP JUMPDEST PUSH2 0xB3 JUMP JUMPDEST STOP JUMPDEST PUSH2 0x79 PUSH1 0x4 DUP1 CALLDATASIZE SUB DUP2 ADD SWAP1 PUSH2 0x74 SWAP2 SWAP1 PUSH2 0x76C JUMP JUMPDEST PUSH2 0x2CC JUMP JUMPDEST PUSH1 0x40 MLOAD PUSH2 0x8C SWAP8 SWAP7 SWAP6 SWAP5 SWAP4 SWAP3 SWAP2 SWAP1 PUSH2 0x828 JUMP JUMPDEST PUSH1 0x40 MLOAD DUP1 SWAP2 SUB SWAP1 RETURN JUMPDEST PUSH2 0x9D PUSH2 0x4D5 JUMP JUMPDEST PUSH1 0x40 MLOAD PUSH2 0xAA SWAP2 SWAP1 PUSH2 0x8AA JUMP JUMPDEST PUSH1 0x40 MLOAD DUP1 SWAP2 SUB SWAP1 RETURN JUMPDEST PUSH0 DUP5 MLOAD GT PUSH2 0xBF JUMPI PUSH0 DUP1 REVERT JUMPDEST PUSH0 DUP3 MLOAD GT PUSH2 0xCB JUMPI PUSH0 DUP1 REVERT JUMPDEST PUSH0 DUP2 MLOAD GT PUSH2 0xD7 JUMPI PUSH0 DUP1 REVERT JUMPDEST PUSH0 PUSH20 0xFFFFFFFFFFFFFFFFFFFFFFFFFFFFFFFFFFFFFFFF AND CALLER PUSH20 0xFFFFFFFFFFFFFFFFFFFFFFFFFFFFFFFFFFFFFFFF AND SUB PUSH2 0x10E JUMPI PUSH0 DUP1 REVERT JUMPDEST PUSH0 DUP4 GT PUSH2 0x119 JUMPI PUSH0 DUP1 REVERT JUMPDEST PUSH0 DUP1 DUP2 SLOAD DUP1 SWAP3 SWAP2 SWAP1 PUSH2 0x12A SWAP1 PUSH2 0x8F0 JUMP JUMPDEST SWAP2 SWAP1 POP SSTORE POP PUSH1 0x1 PUSH0 CALLER PUSH20 0xFFFFFFFFFFFFFFFFFFFFFFFFFFFFFFFFFFFFFFFF AND PUSH20 0xFFFFFFFFFFFFFFFFFFFFFFFFFFFFFFFFFFFFFFFF AND DUP2 MSTORE PUSH1 0x20 ADD SWAP1 DUP2 MSTORE PUSH1 0x20 ADD PUSH0 KECCAK256 PUSH1 0x40 MLOAD DUP1 PUSH1 0xE0 ADD PUSH1 0x40 MSTORE DUP1 PUSH0 SLOAD DUP2 MSTORE PUSH1 0x20 ADD DUP7 DUP2 MSTORE PUSH1 0x20 ADD DUP6 DUP2 MSTORE PUSH1 0x20 ADD DUP5 DUP2 MSTORE PUSH1 0x20 ADD DUP4 DUP2 MSTORE PUSH1 0x20 ADD TIMESTAMP DUP2 MSTORE PUSH1 0x20 ADD CALLER PUSH20 0xFFFFFFFFFFFFFFFFFFFFFFFFFFFFFFFFFFFFFFFF AND DUP2 MSTORE POP SWAP1 DUP1 PUSH1 0x1 DUP2 SLOAD ADD DUP1 DUP3 SSTORE DUP1 SWAP2 POP POP PUSH1 0x1 SWAP1 SUB SWAP1 PUSH0 MSTORE PUSH1 0x20 PUSH0 KECCAK256 SWAP1 PUSH1 0x7 MUL ADD PUSH0 SWAP1 SWAP2 SWAP1 SWAP2 SWAP1 SWAP2 POP PUSH0 DUP3 ADD MLOAD DUP2 PUSH0 ADD SSTORE PUSH1 0x20 DUP3 ADD MLOAD DUP2 PUSH1 0x1 ADD SWAP1 DUP2 PUSH2 0x1F9 SWAP2 SWAP1 PUSH2 0xB31 JUMP JUMPDEST POP PUSH1 0x40 DUP3 ADD MLOAD DUP2 PUSH1 0x2 ADD SSTORE PUSH1 0x60 DUP3 ADD MLOAD DUP2 PUSH1 0x3 ADD SWAP1 DUP2 PUSH2 0x219 SWAP2 SWAP1 PUSH2 0xB31 JUMP JUMPDEST POP PUSH1 0x80 DUP3 ADD MLOAD DUP2 PUSH1 0x4 ADD SWAP1 DUP2 PUSH2 0x22F SWAP2 SWAP1 PUSH2 0xB31 JUMP JUMPDEST POP PUSH1 0xA0 DUP3 ADD MLOAD DUP2 PUSH1 0x5 ADD SSTORE PUSH1 0xC0 DUP3 ADD MLOAD DUP2 PUSH1 0x6 ADD PUSH0 PUSH2 0x100 EXP DUP2 SLOAD DUP2 PUSH20 0xFFFFFFFFFFFFFFFFFFFFFFFFFFFFFFFFFFFFFFFF MUL NOT AND SWAP1 DUP4 PUSH20 0xFFFFFFFFFFFFFFFFFFFFFFFFFFFFFFFFFFFFFFFF AND MUL OR SWAP1 SSTORE POP POP POP PUSH32 0x8AFAB45E252455189E0428FAED31ED4AFC4C187924FD4F30FCF4FEF26B543536 PUSH0 SLOAD DUP6 DUP6 DUP6 DUP6 TIMESTAMP CALLER PUSH1 0x40 MLOAD PUSH2 0x2BE SWAP8 SWAP7 SWAP6 SWAP5 SWAP4 SWAP3 SWAP2 SWAP1 PUSH2 0x828 JUMP JUMPDEST PUSH1 0x40 MLOAD DUP1 SWAP2 SUB SWAP1 LOG1 POP POP POP POP JUMP JUMPDEST PUSH1 0x1 PUSH1 0x20 MSTORE DUP2 PUSH0 MSTORE PUSH1 0x40 PUSH0 KECCAK256 DUP2 DUP2 SLOAD DUP2 LT PUSH2 0x2E5 JUMPI PUSH0 DUP1 REVERT JUMPDEST SWAP1 PUSH0 MSTORE PUSH1 0x20 PUSH0 KECCAK256 SWAP1 PUSH1 0x7 MUL ADD PUSH0 SWAP2 POP SWAP2 POP POP DUP1 PUSH0 ADD SLOAD SWAP1 DUP1 PUSH1 0x1 ADD DUP1 SLOAD PUSH2 0x30B SWAP1 PUSH2 0x964 JUMP JUMPDEST DUP1 PUSH1 0x1F ADD PUSH1 0x20 DUP1 SWAP2 DIV MUL PUSH1 0x20 ADD PUSH1 0x40 MLOAD SWAP1 DUP2 ADD PUSH1 0x40 MSTORE DUP1 SWAP3 SWAP2 SWAP1 DUP2 DUP2 MSTORE PUSH1 0x20 ADD DUP3 DUP1 SLOAD PUSH2 0x337 SWAP1 PUSH2 0x964 JUMP JUMPDEST DUP1 ISZERO PUSH2 0x382 JUMPI DUP1 PUSH1 0x1F LT PUSH2 0x359 JUMPI PUSH2 0x100 DUP1 DUP4 SLOAD DIV MUL DUP4 MSTORE SWAP2 PUSH1 0x20 ADD SWAP2 PUSH2 0x382 JUMP JUMPDEST DUP3 ADD SWAP2 SWAP1 PUSH0 MSTORE PUSH1 0x20 PUSH0 KECCAK256 SWAP1 JUMPDEST DUP2 SLOAD DUP2 MSTORE SWAP1 PUSH1 0x1 ADD SWAP1 PUSH1 0x20 ADD DUP1 DUP4 GT PUSH2 0x365 JUMPI DUP3 SWAP1 SUB PUSH1 0x1F AND DUP3 ADD SWAP2 JUMPDEST POP POP POP POP POP SWAP1 DUP1 PUSH1 0x2 ADD SLOAD SWAP1 DUP1 PUSH1 0x3 ADD DUP1 SLOAD PUSH2 0x39D SWAP1 PUSH2 0x964 JUMP JUMPDEST DUP1 PUSH1 0x1F ADD PUSH1 0x20 DUP1 SWAP2 DIV MUL PUSH1 0x20 ADD PUSH1 0x40 MLOAD SWAP1 DUP2 ADD PUSH1 0x40 MSTORE DUP1 SWAP3 SWAP2 SWAP1 DUP2 DUP2 MSTORE PUSH1 0x20 ADD DUP3 DUP1 SLOAD PUSH2 0x3C9 SWAP1 PUSH2 0x964 JUMP JUMPDEST DUP1 ISZERO PUSH2 0x414 JUMPI DUP1 PUSH1 0x1F LT PUSH2 0x3EB JUMPI PUSH2 0x100 DUP1 DUP4 SLOAD DIV MUL DUP4 MSTORE SWAP2 PUSH1 0x20 ADD SWAP2 PUSH2 0x414 JUMP JUMPDEST DUP3 ADD SWAP2 SWAP1 PUSH0 MSTORE PUSH1 0x20 PUSH0 KECCAK256 SWAP1 JUMPDEST DUP2 SLOAD DUP2 MSTORE SWAP1 PUSH1 0x1 ADD SWAP1 PUSH1 0x20 ADD DUP1 DUP4 GT PUSH2 0x3F7 JUMPI DUP3 SWAP1 SUB PUSH1 0x1F AND DUP3 ADD SWAP2 JUMPDEST POP POP POP POP POP SWAP1 DUP1 PUSH1 0x4 ADD DUP1 SLOAD PUSH2 0x429 SWAP1 PUSH2 0x964 JUMP JUMPDEST DUP1 PUSH1 0x1F ADD PUSH1 0x20 DUP1 SWAP2 DIV MUL PUSH1 0x20 ADD PUSH1 0x40 MLOAD SWAP1 DUP2 ADD PUSH1 0x40 MSTORE DUP1 SWAP3 SWAP2 SWAP1 DUP2 DUP2 MSTORE PUSH1 0x20 ADD DUP3 DUP1 SLOAD PUSH2 0x455 SWAP1 PUSH2 0x964 JUMP JUMPDEST DUP1 ISZERO PUSH2 0x4A0 JUMPI DUP1 PUSH1 0x1F LT PUSH2 0x477 JUMPI PUSH2 0x100 DUP1 DUP4 SLOAD DIV MUL DUP4 MSTORE SWAP2 PUSH1 0x20 ADD SWAP2 PUSH2 0x4A0 JUMP JUMPDEST DUP3 ADD SWAP2 SWAP1 PUSH0 MSTORE PUSH1 0x20 PUSH0 KECCAK256 SWAP1 JUMPDEST DUP2 SLOAD DUP2 MSTORE SWAP1 PUSH1 0x1 ADD SWAP1 PUSH1 0x20 ADD DUP1 DUP4 GT PUSH2 0x483 JUMPI DUP3 SWAP1 SUB PUSH1 0x1F AND DUP3 ADD SWAP2 JUMPDEST POP POP POP POP POP SWAP1 DUP1 PUSH1 0x5 ADD SLOAD SWAP1 DUP1 PUSH1 0x6 ADD PUSH0 SWAP1 SLOAD SWAP1 PUSH2 0x100 EXP SWAP1 DIV PUSH20 0xFFFFFFFFFFFFFFFFFFFFFFFFFFFFFFFFFFFFFFFF AND SWAP1 POP DUP8 JUMP JUMPDEST PUSH0 SLOAD DUP2 JUMP JUMPDEST PUSH0 PUSH1 0x40 MLOAD SWAP1 POP SWAP1 JUMP JUMPDEST PUSH0 DUP1 REVERT JUMPDEST PUSH0 DUP1 REVERT JUMPDEST PUSH0 DUP1 REVERT JUMPDEST PUSH0 DUP1 REVERT JUMPDEST PUSH0 PUSH1 0x1F NOT PUSH1 0x1F DUP4 ADD AND SWAP1 POP SWAP2 SWAP1 POP JUMP JUMPDEST PUSH32 0x4E487B7100000000000000000000000000000000000000000000000000000000 PUSH0 MSTORE PUSH1 0x41 PUSH1 0x4 MSTORE PUSH1 0x24 PUSH0 REVERT JUMPDEST PUSH2 0x539 DUP3 PUSH2 0x4F3 JUMP JUMPDEST DUP2 ADD DUP2 DUP2 LT PUSH8 0xFFFFFFFFFFFFFFFF DUP3 GT OR ISZERO PUSH2 0x558 JUMPI PUSH2 0x557 PUSH2 0x503 JUMP JUMPDEST JUMPDEST DUP1 PUSH1 0x40 MSTORE POP POP POP JUMP JUMPDEST PUSH0 PUSH2 0x56A PUSH2 0x4DA JUMP JUMPDEST SWAP1 POP PUSH2 0x576 DUP3 DUP3 PUSH2 0x530 JUMP JUMPDEST SWAP2 SWAP1 POP JUMP JUMPDEST PUSH0 PUSH8 0xFFFFFFFFFFFFFFFF DUP3 GT ISZERO PUSH2 0x595 JUMPI PUSH2 0x594 PUSH2 0x503 JUMP JUMPDEST JUMPDEST PUSH2 0x59E DUP3 PUSH2 0x4F3 JUMP JUMPDEST SWAP1 POP PUSH1 0x20 DUP2 ADD SWAP1 POP SWAP2 SWAP1 POP JUMP JUMPDEST DUP3 DUP2 DUP4 CALLDATACOPY PUSH0 DUP4 DUP4 ADD MSTORE POP POP POP JUMP JUMPDEST PUSH0 PUSH2 0x5CB PUSH2 0x5C6 DUP5 PUSH2 0x57B JUMP JUMPDEST PUSH2 0x561 JUMP JUMPDEST SWAP1 POP DUP3 DUP2 MSTORE PUSH1 0x20 DUP2 ADD DUP5 DUP5 DUP5 ADD GT ISZERO PUSH2 0x5E7 JUMPI PUSH2 0x5E6 PUSH2 0x4EF JUMP JUMPDEST JUMPDEST PUSH2 0x5F2 DUP5 DUP3 DUP6 PUSH2 0x5AB JUMP JUMPDEST POP SWAP4 SWAP3 POP POP POP JUMP JUMPDEST PUSH0 DUP3 PUSH1 0x1F DUP4 ADD SLT PUSH2 0x60E JUMPI PUSH2 0x60D PUSH2 0x4EB JUMP JUMPDEST JUMPDEST DUP2 CALLDATALOAD PUSH2 0x61E DUP5 DUP3 PUSH1 0x20 DUP7 ADD PUSH2 0x5B9 JUMP JUMPDEST SWAP2 POP POP SWAP3 SWAP2 POP POP JUMP JUMPDEST PUSH0 DUP2 SWAP1 POP SWAP2 SWAP1 POP JUMP JUMPDEST PUSH2 0x639 DUP2 PUSH2 0x627 JUMP JUMPDEST DUP2 EQ PUSH2 0x643 JUMPI PUSH0 DUP1 REVERT JUMPDEST POP JUMP JUMPDEST PUSH0 DUP2 CALLDATALOAD SWAP1 POP PUSH2 0x654 DUP2 PUSH2 0x630 JUMP JUMPDEST SWAP3 SWAP2 POP POP JUMP JUMPDEST PUSH0 DUP1 PUSH0 DUP1 PUSH1 0x80 DUP6 DUP8 SUB SLT ISZERO PUSH2 0x672 JUMPI PUSH2 0x671 PUSH2 0x4E3 JUMP JUMPDEST JUMPDEST PUSH0 DUP6 ADD CALLDATALOAD PUSH8 0xFFFFFFFFFFFFFFFF DUP2 GT ISZERO PUSH2 0x68F JUMPI PUSH2 0x68E PUSH2 0x4E7 JUMP JUMPDEST JUMPDEST PUSH2 0x69B DUP8 DUP3 DUP9 ADD PUSH2 0x5FA JUMP JUMPDEST SWAP5 POP POP PUSH1 0x20 PUSH2 0x6AC DUP8 DUP3 DUP9 ADD PUSH2 0x646 JUMP JUMPDEST SWAP4 POP POP PUSH1 0x40 DUP6 ADD CALLDATALOAD PUSH8 0xFFFFFFFFFFFFFFFF DUP2 GT ISZERO PUSH2 0x6CD JUMPI PUSH2 0x6CC PUSH2 0x4E7 JUMP JUMPDEST JUMPDEST PUSH2 0x6D9 DUP8 DUP3 DUP9 ADD PUSH2 0x5FA JUMP JUMPDEST SWAP3 POP POP PUSH1 0x60 DUP6 ADD CALLDATALOAD PUSH8 0xFFFFFFFFFFFFFFFF DUP2 GT ISZERO PUSH2 0x6FA JUMPI PUSH2 0x6F9 PUSH2 0x4E7 JUMP JUMPDEST JUMPDEST PUSH2 0x706 DUP8 DUP3 DUP9 ADD PUSH2 0x5FA JUMP JUMPDEST SWAP2 POP POP SWAP3 SWAP6 SWAP2 SWAP5 POP SWAP3 POP JUMP JUMPDEST PUSH0 PUSH20 0xFFFFFFFFFFFFFFFFFFFFFFFFFFFFFFFFFFFFFFFF DUP3 AND SWAP1 POP SWAP2 SWAP1 POP JUMP JUMPDEST PUSH0 PUSH2 0x73B DUP3 PUSH2 0x712 JUMP JUMPDEST SWAP1 POP SWAP2 SWAP1 POP JUMP JUMPDEST PUSH2 0x74B DUP2 PUSH2 0x731 JUMP JUMPDEST DUP2 EQ PUSH2 0x755 JUMPI PUSH0 DUP1 REVERT JUMPDEST POP JUMP JUMPDEST PUSH0 DUP2 CALLDATALOAD SWAP1 POP PUSH2 0x766 DUP2 PUSH2 0x742 JUMP JUMPDEST SWAP3 SWAP2 POP POP JUMP JUMPDEST PUSH0 DUP1 PUSH1 0x40 DUP4 DUP6 SUB SLT ISZERO PUSH2 0x782 JUMPI PUSH2 0x781 PUSH2 0x4E3 JUMP JUMPDEST JUMPDEST PUSH0 PUSH2 0x78F DUP6 DUP3 DUP7 ADD PUSH2 0x758 JUMP JUMPDEST SWAP3 POP POP PUSH1 0x20 PUSH2 0x7A0 DUP6 DUP3 DUP7 ADD PUSH2 0x646 JUMP JUMPDEST SWAP2 POP POP SWAP3 POP SWAP3 SWAP1 POP JUMP JUMPDEST PUSH2 0x7B3 DUP2 PUSH2 0x627 JUMP JUMPDEST DUP3 MSTORE POP POP JUMP JUMPDEST PUSH0 DUP2 MLOAD SWAP1 POP SWAP2 SWAP1 POP JUMP JUMPDEST PUSH0 DUP3 DUP3 MSTORE PUSH1 0x20 DUP3 ADD SWAP1 POP SWAP3 SWAP2 POP POP JUMP JUMPDEST DUP3 DUP2 DUP4 MCOPY PUSH0 DUP4 DUP4 ADD MSTORE POP POP POP JUMP JUMPDEST PUSH0 PUSH2 0x7EB DUP3 PUSH2 0x7B9 JUMP JUMPDEST PUSH2 0x7F5 DUP2 DUP6 PUSH2 0x7C3 JUMP JUMPDEST SWAP4 POP PUSH2 0x805 DUP2 DUP6 PUSH1 0x20 DUP7 ADD PUSH2 0x7D3 JUMP JUMPDEST PUSH2 0x80E DUP2 PUSH2 0x4F3 JUMP JUMPDEST DUP5 ADD SWAP2 POP POP SWAP3 SWAP2 POP POP JUMP JUMPDEST PUSH2 0x822 DUP2 PUSH2 0x731 JUMP JUMPDEST DUP3 MSTORE POP POP JUMP JUMPDEST PUSH0 PUSH1 0xE0 DUP3 ADD SWAP1 POP PUSH2 0x83B PUSH0 DUP4 ADD DUP11 PUSH2 0x7AA JUMP JUMPDEST DUP2 DUP2 SUB PUSH1 0x20 DUP4 ADD MSTORE PUSH2 0x84D DUP2 DUP10 PUSH2 0x7E1 JUMP JUMPDEST SWAP1 POP PUSH2 0x85C PUSH1 0x40 DUP4 ADD DUP9 PUSH2 0x7AA JUMP JUMPDEST DUP2 DUP2 SUB PUSH1 0x60 DUP4 ADD MSTORE PUSH2 0x86E DUP2 DUP8 PUSH2 0x7E1 JUMP JUMPDEST SWAP1 POP DUP2 DUP2 SUB PUSH1 0x80 DUP4 ADD MSTORE PUSH2 0x882 DUP2 DUP7 PUSH2 0x7E1 JUMP JUMPDEST SWAP1 POP PUSH2 0x891 PUSH1 0xA0 DUP4 ADD DUP6 PUSH2 0x7AA JUMP JUMPDEST PUSH2 0x89E PUSH1 0xC0 DUP4 ADD DUP5 PUSH2 0x819 JUMP JUMPDEST SWAP9 SWAP8 POP POP POP POP POP POP POP POP JUMP JUMPDEST PUSH0 PUSH1 0x20 DUP3 ADD SWAP1 POP PUSH2 0x8BD PUSH0 DUP4 ADD DUP5 PUSH2 0x7AA JUMP JUMPDEST SWAP3 SWAP2 POP POP JUMP JUMPDEST PUSH32 0x4E487B7100000000000000000000000000000000000000000000000000000000 PUSH0 MSTORE PUSH1 0x11 PUSH1 0x4 MSTORE PUSH1 0x24 PUSH0 REVERT JUMPDEST PUSH0 PUSH2 0x8FA DUP3 PUSH2 0x627 JUMP JUMPDEST SWAP2 POP PUSH32 0xFFFFFFFFFFFFFFFFFFFFFFFFFFFFFFFFFFFFFFFFFFFFFFFFFFFFFFFFFFFFFFFF DUP3 SUB PUSH2 0x92C JUMPI PUSH2 0x92B PUSH2 0x8C3 JUMP JUMPDEST JUMPDEST PUSH1 0x1 DUP3 ADD SWAP1 POP SWAP2 SWAP1 POP JUMP JUMPDEST PUSH32 0x4E487B7100000000000000000000000000000000000000000000000000000000 PUSH0 MSTORE PUSH1 0x22 PUSH1 0x4 MSTORE PUSH1 0x24 PUSH0 REVERT JUMPDEST PUSH0 PUSH1 0x2 DUP3 DIV SWAP1 POP PUSH1 0x1 DUP3 AND DUP1 PUSH2 0x97B JUMPI PUSH1 0x7F DUP3 AND SWAP2 POP JUMPDEST PUSH1 0x20 DUP3 LT DUP2 SUB PUSH2 0x98E JUMPI PUSH2 0x98D PUSH2 0x937 JUMP JUMPDEST JUMPDEST POP SWAP2 SWAP1 POP JUMP JUMPDEST PUSH0 DUP2 SWAP1 POP DUP2 PUSH0 MSTORE PUSH1 0x20 PUSH0 KECCAK256 SWAP1 POP SWAP2 SWAP1 POP JUMP JUMPDEST PUSH0 PUSH1 0x20 PUSH1 0x1F DUP4 ADD DIV SWAP1 POP SWAP2 SWAP1 POP JUMP JUMPDEST PUSH0 DUP3 DUP3 SHL SWAP1 POP SWAP3 SWAP2 POP POP JUMP JUMPDEST PUSH0 PUSH1 0x8 DUP4 MUL PUSH2 0x9F0 PUSH32 0xFFFFFFFFFFFFFFFFFFFFFFFFFFFFFFFFFFFFFFFFFFFFFFFFFFFFFFFFFFFFFFFF DUP3 PUSH2 0x9B5 JUMP JUMPDEST PUSH2 0x9FA DUP7 DUP4 PUSH2 0x9B5 JUMP JUMPDEST SWAP6 POP DUP1 NOT DUP5 AND SWAP4 POP DUP1 DUP7 AND DUP5 OR SWAP3 POP POP POP SWAP4 SWAP3 POP POP POP JUMP JUMPDEST PUSH0 DUP2 SWAP1 POP SWAP2 SWAP1 POP JUMP JUMPDEST PUSH0 PUSH2 0xA35 PUSH2 0xA30 PUSH2 0xA2B DUP5 PUSH2 0x627 JUMP JUMPDEST PUSH2 0xA12 JUMP JUMPDEST PUSH2 0x627 JUMP JUMPDEST SWAP1 POP SWAP2 SWAP1 POP JUMP JUMPDEST PUSH0 DUP2 SWAP1 POP SWAP2 SWAP1 POP JUMP JUMPDEST PUSH2 0xA4E DUP4 PUSH2 0xA1B JUMP JUMPDEST PUSH2 0xA62 PUSH2 0xA5A DUP3 PUSH2 0xA3C JUMP JUMPDEST DUP5 DUP5 SLOAD PUSH2 0x9C1 JUMP JUMPDEST DUP3 SSTORE POP POP POP POP JUMP JUMPDEST PUSH0 SWAP1 JUMP JUMPDEST PUSH2 0xA76 PUSH2 0xA6A JUMP JUMPDEST PUSH2 0xA81 DUP2 DUP5 DUP5 PUSH2 0xA45 JUMP JUMPDEST POP POP POP JUMP JUMPDEST JUMPDEST DUP2 DUP2 LT ISZERO PUSH2 0xAA4 JUMPI PUSH2 0xA99 PUSH0 DUP3 PUSH2 0xA6E JUMP JUMPDEST PUSH1 0x1 DUP2 ADD SWAP1 POP PUSH2 0xA87 JUMP JUMPDEST POP POP JUMP JUMPDEST PUSH1 0x1F DUP3 GT ISZERO PUSH2 0xAE9 JUMPI PUSH2 0xABA DUP2 PUSH2 0x994 JUMP JUMPDEST PUSH2 0xAC3 DUP5 PUSH2 0x9A6 JUMP JUMPDEST DUP2 ADD PUSH1 0x20 DUP6 LT ISZERO PUSH2 0xAD2 JUMPI DUP2 SWAP1 POP JUMPDEST PUSH2 0xAE6 PUSH2 0xADE DUP6 PUSH2 0x9A6 JUMP JUMPDEST DUP4 ADD DUP3 PUSH2 0xA86 JUMP JUMPDEST POP POP JUMPDEST POP POP POP JUMP JUMPDEST PUSH0 DUP3 DUP3 SHR SWAP1 POP SWAP3 SWAP2 POP POP JUMP JUMPDEST PUSH0 PUSH2 0xB09 PUSH0 NOT DUP5 PUSH1 0x8 MUL PUSH2 0xAEE JUMP JUMPDEST NOT DUP1 DUP4 AND SWAP2 POP POP SWAP3 SWAP2 POP POP JUMP JUMPDEST PUSH0 PUSH2 0xB21 DUP4 DUP4 PUSH2 0xAFA JUMP JUMPDEST SWAP2 POP DUP3 PUSH1 0x2 MUL DUP3 OR SWAP1 POP SWAP3 SWAP2 POP POP JUMP JUMPDEST PUSH2 0xB3A DUP3 PUSH2 0x7B9 JUMP JUMPDEST PUSH8 0xFFFFFFFFFFFFFFFF DUP2 GT ISZERO PUSH2 0xB53 JUMPI PUSH2 0xB52 PUSH2 0x503 JUMP JUMPDEST JUMPDEST PUSH2 0xB5D DUP3 SLOAD PUSH2 0x964 JUMP JUMPDEST PUSH2 0xB68 DUP3 DUP3 DUP6 PUSH2 0xAA8 JUMP JUMPDEST PUSH0 PUSH1 0x20 SWAP1 POP PUSH1 0x1F DUP4 GT PUSH1 0x1 DUP2 EQ PUSH2 0xB99 JUMPI PUSH0 DUP5 ISZERO PUSH2 0xB87 JUMPI DUP3 DUP8 ADD MLOAD SWAP1 POP JUMPDEST PUSH2 0xB91 DUP6 DUP3 PUSH2 0xB16 JUMP JUMPDEST DUP7 SSTORE POP PUSH2 0xBF8 JUMP JUMPDEST PUSH1 0x1F NOT DUP5 AND PUSH2 0xBA7 DUP7 PUSH2 0x994 JUMP JUMPDEST PUSH0 JUMPDEST DUP3 DUP2 LT ISZERO PUSH2 0xBCE JUMPI DUP5 DUP10 ADD MLOAD DUP3 SSTORE PUSH1 0x1 DUP3 ADD SWAP2 POP PUSH1 0x20 DUP6 ADD SWAP5 POP PUSH1 0x20 DUP2 ADD SWAP1 POP PUSH2 0xBA9 JUMP JUMPDEST DUP7 DUP4 LT ISZERO PUSH2 0xBEB JUMPI DUP5 DUP10 ADD MLOAD PUSH2 0xBE7 PUSH1 0x1F DUP10 AND DUP3 PUSH2 0xAFA JUMP JUMPDEST DUP4 SSTORE POP JUMPDEST PUSH1 0x1 PUSH1 0x2 DUP9 MUL ADD DUP9 SSTORE POP POP POP JUMPDEST POP POP POP POP POP POP JUMP INVALID LOG2 PUSH5 0x6970667358 0x22 SLT KECCAK256 MULMOD 0xE1 0xC0 0xEB JUMPDEST ADDRESS 0x2F 0xAF SUB PUSH0 KECCAK256 0xDA DUP13 0xAA LOG3 0xB2 BALANCE DUP8 STATICCALL STATICCALL PUSH9 0xCAB7F8828BB9FB390A PUSH22 0x364736F6C634300081A003300000000000000000000 "
				},
				"gasEstimates": {
					"creation": {
						"codeDepositCost": "625200",
						"executionCost": "5660",
						"totalCost": "630860"
					},
					"external": {
						"fileCount()": "2446",
						"files(address,uint256)": "infinite",
						"uploadFile(string,uint256,string,string)": "infinite"
					}
				},
				"methodIdentifiers": {
					"fileCount()": "43953519",
					"files(address,uint256)": "2ba6978e",
					"uploadFile(string,uint256,string,string)": "20f21708"
				}
			},
			"storageLayout": {
				"storage": [
					{
						"astId": 35,
						"contract": "contracts/FileUpload.sol:FileStorage",
						"label": "fileCount",
						"offset": 0,
						"slot": "0",
						"type": "t_uint256"
					},
					{
						"astId": 41,
						"contract": "contracts/FileUpload.sol:FileStorage",
						"label": "files",
						"offset": 0,
						"slot": "1",
						"type": "t_mapping(t_address,t_array(t_struct(File)32_storage)dyn_storage)"
					}
				],
				"types": {
					"t_address": {
						"encoding": "inplace",
						"label": "address",
						"numberOfBytes": "20"
					},
					"t_array(t_struct(File)32_storage)dyn_storage": {
						"base": "t_struct(File)32_storage",
						"encoding": "dynamic_array",
						"label": "struct FileStorage.File[]",
						"numberOfBytes": "32"
					},
					"t_mapping(t_address,t_array(t_struct(File)32_storage)dyn_storage)": {
						"encoding": "mapping",
						"key": "t_address",
						"label": "mapping(address => struct FileStorage.File[])",
						"numberOfBytes": "32",
						"value": "t_array(t_struct(File)32_storage)dyn_storage"
					},
					"t_string_storage": {
						"encoding": "bytes",
						"label": "string",
						"numberOfBytes": "32"
					},
					"t_struct(File)32_storage": {
						"encoding": "inplace",
						"label": "struct FileStorage.File",
						"members": [
							{
								"astId": 19,
								"contract": "contracts/FileUpload.sol:FileStorage",
								"label": "fileId",
								"offset": 0,
								"slot": "0",
								"type": "t_uint256"
							},
							{
								"astId": 21,
								"contract": "contracts/FileUpload.sol:FileStorage",
								"label": "fileHash",
								"offset": 0,
								"slot": "1",
								"type": "t_string_storage"
							},
							{
								"astId": 23,
								"contract": "contracts/FileUpload.sol:FileStorage",
								"label": "fileSize",
								"offset": 0,
								"slot": "2",
								"type": "t_uint256"
							},
							{
								"astId": 25,
								"contract": "contracts/FileUpload.sol:FileStorage",
								"label": "fileType",
								"offset": 0,
								"slot": "3",
								"type": "t_string_storage"
							},
							{
								"astId": 27,
								"contract": "contracts/FileUpload.sol:FileStorage",
								"label": "fileName",
								"offset": 0,
								"slot": "4",
								"type": "t_string_storage"
							},
							{
								"astId": 29,
								"contract": "contracts/FileUpload.sol:FileStorage",
								"label": "uploadTime",
								"offset": 0,
								"slot": "5",
								"type": "t_uint256"
							},
							{
								"astId": 31,
								"contract": "contracts/FileUpload.sol:FileStorage",
								"label": "uploader",
								"offset": 0,
								"slot": "6",
								"type": "t_address"
							}
						],
						"numberOfBytes": "224"
					},
					"t_uint256": {
						"encoding": "inplace",
						"label": "uint256",
						"numberOfBytes": "32"
					}
				}
			},
			"userdoc": {
				"kind": "user",
				"methods": {},
				"version": 1
			}
		}
	}
}